:020000040000FA
:2000000000500020E9000000E1000000C9000000E5000000E5000000E5000000000000002E
:20002000000000000000000000000000E5000000E500000000000000E5000000E50000002C
:20004000D5180000E5000000419A0000E5000000490F0000C1130000E5000000E500000018
:20006000E5000000699A0000E5000000E5000000E5000000E5000000E5000000E50000003A
:20008000E5000000E5000000E5000000E5000000E5000000E5000000E5000000E500000038
:2000A000E5000000E5000000E5000000E5000000E5000000E5000000E5000000E500000018
:2000C000E500000031280000044B1A68B2F5806F03D01B689B0500D4FEE7704728ED00E020
:2000E000FEE700BFFEE700BF08B506F0EFFF104A104B9A420DD2D0430F4918440B4620F07F
:2001000003000430084453F8041B834242F8041BF9D10A480A494FF000028842B8BF40F8AB
:20012000042BFADB00F0E6F8FFF7CEFF08BD00BF000000205802002000D2000058020020C0
:20014000E02F002010B5039C044802F0B7FB2146BDE81040024802F0B1BB00BF0CCD000080
:2001600030CD00004AF6AA2110B50F4C002382B04FF480720D482180E2816380A380E3800B
:2001800023816381A38102F099FB204605F090FB074B2246009341F2B35141F6C663054816
:2001A00005F062FD02B010BD9802002048CD000045010000BC020020F0B52B4B028891B093
:2001C000044693E8030006908DF81C1072B14B2A07D1264803F03AFA002837D1012011B0F9
:2001E000F0BD00230320238011B0F0BD2049214D91F802C091F803E00A784B7888790F799F
:200200004E79C9798DE800500490059102971A490396284602F070FBA87BE97B2A7B6B7B74
:200220008DE82300154908A802F066FBFFF79AFF0E484FF4207103F0EBF908A9104802F03A
:200240003DFB4B230120238011B0F0BD074803F0E9F90C4802F032FB06A905220A4B0B48B1
:2002600005F0F4FCEDE700BFFCCC000088020020402E0020A80200206CCD000090CD0000A6
:20028000A8CD0000C8CD000098020020BC020020F0B5002706463C463D4683B0304600F006
:2002A000FDF90195019B9C4206DD00BF019B01330193019B9C42F8DC304600F0F9F90195F6
:2002C000019BC4F5C874A34206DA00BF019B01330193019BA342F8DB0137B7F5487F06D0D0
:2002E000B7F5C87FCCBFC7F548743C46D6E703B0F0BD00BF2DE9F041744C86B02368744826
:2003000001215B689847236801210A461B687048984707F009F901F0F5FA01F08DFA00F0C1
:20032000E1F901F0C5FA00F0AFF96A496A486B4A012303600B6018461368FFF7A9FF07F021
:20034000F7F800F073FD00F0E1FC03F02DFB00F061FE03F057FA41F2342002F07FF900F0F2
:20036000FBFF03F0C5FB5E4800F090FE00214BF2AC725C4802F0A2FA5B4800F087FE07F0EF
:2003800069F95A4C5A4D10F0040F14BFA046A84607F068F901280CBF26462E4607F05AF97E
:2003A00010F0020F14BF27462F4607F053F910F0080F08BF2C4632463B46414600944D483B
:2003C00002F07CFA00214C4803F0C2FA02F0C4FF03F066F80220FFF75BFF484802F06EFAEF
:2003E000474B484C186800F051FE474802F066FA464B186800F04AFE454802F05FFA21688D
:20040000444802F05BFAE469A04720B1A0470146414802F053FA0A2000F030FE002607F0A9
:2004200019FE04A808213D4D3D4F039600F066FE9DF817309DF8164004AA03CA43EA042436
:20044000D7F82C802860696002204AF6CD31C04721460320C04719210120C047082204A99F
:200460007B6B0B209847BB6A03A90120984703992C4802F023FA2C4B21462C481C8002F0BC
:200480001DFA2B4B6A6829685A60196007F0BCF93146284803F05CFA0220FFF7F9FE3146D7
:2004A000254803F055FA254802F0EEFF00F0C0FD0120FFF7EDFE03F0BFF9044600F0D0FDE0
:2004C00014F0FF0FF7D101F07DF8F4E7D801001000400340080009400C4009402C2009401A
:2004E00008CE00002CCE000044CE000000CE000004CE000058CE0000D40000208CCE000006
:20050000CCD0000080D1000094CE000058D100009CCE0000A4CE0000A8CE0000402E002083
:20052000D4CF0000CCCE000068270020E0CE0000A8270020000100201000002004CD000010
:200540002DE9F04104880646772C30D07E2C27D024B1002303800320BDE8F08103F04AF94E
:200560002F4F304B304D3A6818702C60002A45D02346A0462D4C04F803809368802000210D
:2005800098472B68013357F823202B60002AF2D1DBB2274A1370772333800120BDE8F081A6
:2005A000204B1B788B4219D00120BDE8F081DFF880801D4D98F800201E4F002393423B605F
:2005C0002B6007DA194CE156002919DB013393422B60F7DB3B68002BEFD1DCE7124D134C81
:2005E000DFF84C80134F2B683A68E05C511C00F07F0098F80020E0543960E7E71346C8E756
:200600000849074A097852F82320002003F074F90028E8D17E2333800120BDE8F08100BF7F
:2006200034000020DC2F0020E00200209C27002078270020E402002010B40F4B1C7864B1CA
:200640000E4A1368984214D0002303E052F8041F88420CD00133A342F8D1094A0948135DFA
:2006600063F07F0313555DF8044B03F091B91C46F3E70024F1E700BF782700203400002052
:200680009C2700201000002008B500F077F8024B00221A7008BD00BF79270020034A137816
:2006A00003431846137000F083B800BF79270020034A137823EA00031846137000F078B880
:2006C0007927002010B5064C042023685B699847236804205B6B98470128F9D110BD00BF1E
:2006E000B8010010F0B591B006F01EFF0746FFF7E9FF1C4B4FF4A0601B68DB6998471A4B58
:2007000001211A4A196013689907FCD56D46184C00F0E4F9174801F083F80FCC0FC50FCCB5
:200720000FC50FCC0FC594E80F00009C85E80F00621C0FD06D46104E336820469B6B98473F
:20074000336820469B694FF40051984755F8044F631CF1D10FB111B0F0BD11B0BDE8F0407C
:2007600006F0E6BEB80100102820086028200840F8CE000020000020B4010010094B1A6835
:2007800002B1704710B50122074C1A6023680620DB6B984723680720DB6B9847034BC0225D
:2007A0001A6010BDE8020020B4010010A0200240074B0849C02208701A60C20744BF40227C
:2007C00043F8102C830702D5034B80221A607047A02002407A2700209020024008B5034B60
:2007E0001B685B689847C0F3804008BDB401001028B1012806BF054BD86800207047044B5A
:200800001868C0F3403080F001007047EC020020C020024008B100207047034B1868C0F3CC
:20082000803080F001007047C02002408138012801D9002070470D20FFF7D0BF8138012897
:2008400001D9002070470E20FFF7C8BF802870B514460AD0812807D1E1B9BDE87040184B68
:2008600010461B685B6B184770BD154D1549012393402A680B60936B204698472B6820465D
:2008800000211B68104A9847E0B21049BDE8704000F0F8BF0A4D0B49012393402A680B60F5
:2008A000936B204698472B6820461B680021064A98472B682046BDE870401B6B184700BF37
:2008C000B4010010E020024000400720E908000008B50D22FFF7BAFF012008BD08B50E224B
:2008E000FFF7B4FF012008BD0D2838B50AD00E2800D038BD4FF480414FF08052BDE8384040
:2009000000F088BD0E4C204603F08EF80028F0D02046042103F074F80A4B1D68C5F3403590
:2009200025B900F03FFAE560A06038BD00F03AFAA368C31AE3600448BDE83840FFF77CBE8E
:20094000EC020020C020024040CF000030B51B4A1B4B106883B000244FF4801501908DF8EB
:2009600000408DF8014001A81D60042100F0D2F820B9144BFF201D6003B030BD6846022127
:2009800000F0E6F80F4B1D6010B9FF2003B030BD9DF80030EF2B03D0C22B01D02046EBE782
:2009A0009DF80100A0F11103012B05D9143801288CBF00200120DFE70120DDE760CF000017
:2009C000A02002409020024030B5164B83B002AC05224FF4801504F8042D1D6000F0DCF88F
:2009E0002046012100F096F820B910E09DF80730DB0710D50DF10700012100F0A9F80028B5
:200A0000F4D1094B4FF480121A6003B030BD064B1D6003B030BD044B4FF4801201201A60A1
:200A200003B030BDA02002409020024030B583B0FFF7CAFF08B903B030BD0E4B02A8B9220C
:200A40004FF4801500F8012D01211D6000F062F8094B0A241D60FFF779FF631E0028EAD0DF
:200A600013F0FF04F7D1044B4FF480121A6003B030BD00BFA02002409020024010B50A21C7
:200A800082B0124800F09AF8114B14201B68114CDB6B9847104A4FF48013AB2102A823608A
:200AA00000F8011D1360012100F034F808B1FFF78BFF084B4FF480121A60FFF747FFA0F1C7
:200AC0000100B0FA80F0400902B010BD00093D00B401001090200240A020024008B5FFF781
:200AE000CDFFFFF7A3FFBDE8084000F0C7B800BF08B5064B02201B685B6B9847012803BF34
:200B0000034B186800F00100002008BDB801001078200840F0B583B005460C46FFF7E8FF36
:200B2000074680B17CB1094E33684FF080405B6815F8011B984733684FF08040DB6801A9C7
:200B40009847013CF0D1384603B0F0BDC4010010F0B583B005460C46FFF7CAFF0746B0B123
:200B6000ACB10C4E09E033684FF08040DB689847019B013C05F8013B09D0336800214FF033
:200B800080409B68984701A90028ECD10746384603B0F0BDC401001010B582B0FFF7A8FF90
:200BA00040B1054C23684FF080401B6901A998470028F7D102B010BDC4010010F0B5264D00
:200BC00007462B6885B002205B690E4698472B6802205B6B9847012804461F4BF7D11B6865
:200BE0004FF48070DB6998471C4B1D4A1C6013689B07FCD51B4A1C4913681C484FF0030E6E
:200C0000082523F00F030C4609681360C0F800E000220195009713460F684FF08040144939
:200C2000B847144B29461B6800965D6C09224FF0FF334FF08040A8470F4A136843F002036F
:200C4000136023684FF080401B6903A998470028F7D105B0F0BD00BFB801001028200860FE
:200C60002820084014000040C401001020000040006CDC02B40100100400004010B5174BE1
:200C80004FF480701B681B6A9847154B0121154A196013689B07FCD5134C082023689B6BDA
:200CA000984723684FF4005108209B699847236809209B6B984723684FF4005109209B6946
:200CC000984723680A209B6B984723680A209B694FF40051BDE81040184700BFB801001072
:200CE0002820086028200840B401001010B5064C042023685B699847236804205B6B984732
:200D00000128F9D110BD00BFB8010010F8B51A4A00200021C2E90001184B04201B685B6BBD
:200D20009847012801D0FFF7E1FF144B00201B68DB699847124B0121124A196013689B076E
:200D4000FCD5114A11491368096823F4807323F001030F4C13600B6820460E49984740F2F1
:200D600021200D4D0D490E4B04273126012227602E6008601A60F8BD58020020B801001095
:200D800028200860282008400C000140C801001000000140002100043C00014008000140C1
:200DA0000400244310B40949094C0B68226808688342FAD1DB01074903EB52620023C1E9C5
:200DC00000235DF8044BD1E900017047082009400C2009405802002010B50B490B4C0B6897
:200DE000226808688342FAD1DB01094903EB52620023C1E9002302F033FC00B910BDBDE85D
:200E0000104002F0FFBB00BF082009400C2009405802002010B506F087FB034B1C6808B9E7
:200E200006F086FB204610BD082009402DE9F04106F07AFB1D4E1E4B1E4F326801240025C0
:200E400080464FF480314FF480703D601C60186019601368284623219847336820461B680B
:200E600024219847336802201B6825219847124A1249136843F4E02313600D6006F0D8FBD4
:200E80000F4B1049104A1B6800F50070086014603C601B6914209847B8F1000F01D0BDE820
:200EA000F081BDE8F04106F043BB00BF8401001004200940000024430020094008200940F5
:200EC000B00100101C200940A0022443431E012B10B41BD9042802D05DF8044B7047002302
:200EE0001A4610F004001CBF0E4C216013B10E4B0121196012B10D4B01221A600028EBD085
:200F00000B4B01221A605DF8044B704710F0010302D0084A0123116010F00202E1D0064CBF
:200F20002160DEE72020094080022443A0022443C0022443182009401C200940014B1868F5
:200F4000704700BFFC02002008B508F063FA184B1860FFF741FF174B1B686BB9164B1B68ED
:200F6000E3B9164B1B6833B11549164B00204FF4803208601A6008BD124B4FF480721A6086
:200F800006F056FB00F205200F4B20F4FF7020F001001860084B1B68002BE2D00B49094B32
:200FA0000020012208601A6002F016FDD9E700BFFC020020A000244380002443C000244355
:200FC000C0022443042009401C20094080022443820702D5034B01221A60C30700D470476D
:200FE00006F0A6BA000C084008B506F09DFA074B1A68012A03BF0649022219600022002806
:2010000014BF104642F0010008BD00BF000C084051E5CC1A03490448044B012208601A6094
:20102000704700BF00000840FFFF0F00000C084038B5FFF7D9FF064C064D0749074A01236C
:2010400025600B601360BDE83840FFF7C1BF00BF00000840FFFF0F000C00084004010043EA
:2010600003490448044B012208601A60704700BF00000840FFFF0F000C00084010B5044656
:20108000C0B200F07DF9204610BD00BF70B506460024451E04E015F8010F00F071F90134FE
:2010A00030460BF0FDFD8442F5D30A2000F068F900F07AF90128FBD0204670BD70B5044663
:2010C000B0B10078C0B1A9B10025661804E014F8010F38B1B44205D000F052F9631C05F165
:2010E0000105F4D100F060F90128FBD0284670BD0546F7E70D46F5E70546F3E710B40B4BB6
:201100000B4C13F8012FFF2A0ED1A342F9D1094A39B11144013801390B78914200F8013FF3
:20112000F9D15DF8044B7047034AF1E7C7FF0100CFFF0100F0120050C8FF010038B50C4D6F
:2011400002202B685B6998472B6802205B6B984701280446064BF7D11B684FF40070DB69D7
:201160009847044B044A1C6013689B07FCD538BDB801001028200860282008402DE9F04342
:2011800040F2F275DFF8DC8083B0FFF7D7FFD8F800302A4EDB682A4898473368294C5B69A4
:2011A000152098472368DFF8C090274F23F4FE63D9F8002023F0020323603D60D36B0320F1
:2011C00098472249D9F800300820122208600092D3F840C01A48022103221323E047D8F8CC
:2011E00000301748D3F804C019494FF4E1326023E04740F2011240F2013E1649164B1420C5
:2012000008601968154841F01001196003681449002B0CBF134673460B603D60036853B186
:201220002368326843F0500323601369152003B0BDE8F043184703B0BDE8F083B001001059
:2012400000100040381000404410004090200240006CDC02341000402C10004000030020C3
:2012600030100040D0010010B401001008B5064B02201B685B6B9847012803BF034B186837
:2012800000F00100002008BDB80100106C20084038B50446FFF7EAFF18B1254A13681907F2
:2012A000FCD4032C03D0234B1B6803B138BDFFF7DDFFE0B9204D4FF400702B681B6A984740
:2012C000032C2AD01D4B01211D4A196013689B07FCD5032000F0C0FA022000F0BDFA1320C4
:2012E00000F0BAFABDE83840122000F0B5BA154B15481B68DB689847144B15201B685B695F
:20130000984740F2F270124A1249136823F4FE6323F0020313600860CCE72B684FF40070C4
:201320009B6A98472B684FF400701B6B9847C9E71810004000030020B8010010282008606A
:2013400028200840D001001000100040B0010010381000404410004010B506F0E5F804460D
:20136000054800F05DFA054B00221A6004B110BDBDE8104006F0DCB8400000200003002069
:2013800010B50446FFF772FF08B9FFF7F7FE044B2146BDE810401B680248DB69184700BF51
:2013A000D00100100010004008B5FFF75FFF18B1024B1868C0F3C00008BD00BF18100040F6
:2013C00038B5FFF7BBFE40F2F2710C4B0C4A1B68116013F0500F10D00A4C0B4D05E02B68D3
:2013E0001B699847094B1B6823B923680848DB06F5D538BDC0B29847F7E738BD40100040A8
:201400004410004018100040D001001000030020001000402DE9F0474FF000094C4682B023
:2014200040230F46164601930546CDF8009006F07BF84A4BDFF864E101204FF480714FF4B2
:201440008032DFF85C81CEF80090186019601A60D8F8003020461B6801343F219847042CD8
:20146000F6D1DFF83C810024D8F8003020469B6801343F219847032CF6D1394B1B68FFF71D
:20148000EFFD384802F04AFB044630B1A368032003B198472468002CF8D16B1C0CD0324B5C
:2014A000AA0013430021314A1960136846F000523A4328461B6898472D4EDFF8E8A00024C9
:2014C0003368CAF800409B6907209847684607F0B7FF00F08FFA00F03DFA26482649036822
:2014E000326823F0030303600B68244D23F00F030B609369382098472C60012007F0C0FFCC
:20150000DFF8A490DFF8A4E01D481E491E4B1F4A4FF00108124F2C60C9F80040CEF800804B
:2015200004600C60CAF800401C603B6818491368096823F0030313604B68164803219847CD
:20154000154A33682C60C9F80040C2F800809B6B3A68984702B0BDE8F08700BF0420094049
:201560002C20094004030020001A4442B4010010B80100100010094008100940401009402E
:2015800040012243440122430800094024220840D8010010004003401810094000002443D8
:2015A000840100100C4009402004224388010443034A136823F00403136030BF704700BFEE
:2015C00010ED00E070B505F0AFFF02F08BF918B1BDE8704005F0ACBF814802F09FFA0225F7
:2015E000044648B1636823B19847A84228BF2846C5B22468002CF5D107F00CFF794B0446E6
:201600001B68002B40F08B8002F02AF8002840F09280012D014600F0D680022DD8D10028A8
:2016200040F0C3802846611EFFF750FC6C4802F075FA06250446002800F0B080A368022009
:2016400003B198472369246825EA0305002CF5D1FFF706FD6B0705F0060400F1A280002C2D
:2016600040F0A78000F0C6F9002007F009FF5E495E4A0B685E4823F003030B601368016875
:2016800043F00F0313608B6939209847594A5A4900231360184613600B6005F09BFD062C8F
:2016A00000F08D80554C564D564E2B682368326823F00303236053685348032198474C4B01
:2016C0001B689B6B98472B6805F0BEFE4F4A3368002111604C485B680121984723684C4A1F
:2016E000012143F00303236011602B6805F0DEFE07F092FEFFF770FBFFF7B2FC384802F039
:201700000DFA044628B1E36803B198472468002CF9D105F00DFFBDE8704005F009BF3D4BA4
:201720001B681B1A022B34D4A3F28F23002BBFF66BAF01232EE001F09BFF0646FFF732FB4F
:20174000361A002E7FF744AFFFF7F8FB324B00EB46211B1BCB423CD4012085427FF45DAF30
:201760006FF007031B1BCB4230D404F58034631A31EA230128BF21460220FFF7A7FB274AD7
:20178000136823F00403136030BFBDE8704005F0CFBE00239D4228BF1D4635E7FFF760FCC1
:2017A00006241B4B00221A6059E72846FFF78EFB3CE70F4B20461B689B69984752E702202C
:2017C00005F0BAFE6EE704F58031D5E704F10801D2E7022DC4D0012D7FF4FAAEC0E700BF78
:2017E00004030020800224430010094008100940B8010010401009402004224324220840A6
:201800002C200940D801001000400340800104430C4009401820094071FDFFFF10ED00E0A0
:201820000146014802F07CB9040300200146014802F0BAB90403002010B5054802F06AF947
:20184000BDE81040034B03201B6820211B6818470403002084010010421C0ED010B5044675
:20186000064B4FF4C0421B6800211B689847044AA3001A430023136010BD7047B40100109F
:20188000001A444238B504460D4605F04DFE01230549064AA3400B6042F8245000B138BD7A
:2018A000BDE8384005F044BEE020024008030020064B002103F1800243F8041F9342FBD1C0
:2018C000034B10201B681B69184700BF04030020B0010010F8B5094B094F1D6800241D60FE
:2018E000012606FA04F32B42E0B203D057F8243003B198470134202CF3D1F8BDE020024086
:201900000803002000B585B00022412302A80292039307F095FD042005F064FF032810D048
:201920000420032105F036FF042005F05BFF0328FAD10090002106484FF040521C2305F0C8
:201940002DFE02A807F0D2FD05B05DF804FB00BF00A00C4000B583B00022412368468DE8A7
:201960000C0007F06DFD042005F03CFF022808D00420022105F00EFF042005F033FF0228E6
:20198000FAD1684607F0B2FD03B05DF804FB00BF00B583B00022412368468DE80C0007F0CE
:2019A0004FFD012005F01EFF012803D00320012105F0F0FE684607F099FD03B05DF804FB42
:2019C00000B583B00022412368468DE80C0007F037FD012005F006FF012803D0044B986BD6
:2019E00005F0E2FB684607F081FD03B05DF804FB4800001010B582B04123684600240193D2
:201A0000009407F01DFD0320214605F0C3FE012005F0E8FE18B1044B986B05F0C5FB684667
:201A200007F064FD02B010BD4800001008B507F09DFD30B1044B5B88022B0CBF01200220DB
:201A400008BD022008BD00BF0806002070B582B007F08CFD40B9144801A907F08FFD01286B
:201A60000AD0002002B070BD0F4C6388022B08BF0120F0D102B070BD07F0CCFC6FF03F0530
:201A8000094C2D1A03E007F0C5FCC54209D56088054E0228F7D1A0F10200B0FA80F0400907
:201AA000E8E77088F7E700BF0806002008B50346B32994BF0A46B422024819460AF0CAFFCD
:201AC000002008BD9A06002070B5054605F02CFD04462DB1124A134B12681A6094B170BD8B
:201AE0000F4B104D1E68002116F180402A684FF0000341F10001994208BF904206D32E60DF
:201B0000002CECD1BDE8704005F012BD07F082FC054A064913680860013313602E60EFE7C2
:201B20000430044050070020880300200406002030B589B002A8182140F6020207F06AFF46
:201B4000164B9DF81A201B689DF81B401979144D61F3050211468DF81A205A7902A862F3AC
:201B600087118DF81A109A7901A9012362F347048DF81B4007958DF8163007F0FFFC01283B
:201B800002D0002009B030BD02A807F049FDA0F10100B0FA80F0400909B030BD9400002077
:201BA0006800002008B5FFF7C3FF012801D0002008BDFFF74BFFC0B208BD00BF70B50E4D93
:201BC0000E4E2C68002006E02379022B06D024682B68A3420ED02379032BF5D13378012032
:201BE000002BF4D1064801F0D3FE24682B680120A342F0D170BD00BFD00500207B2700205C
:201C00008C01002010B582B007F0FEFE044607F0ADFC08B902B010BD084801A907F0AEFC68
:201C20000128F7D1638803F44063002BF2D1638803F44063002BF5D0ECE700BF0100010433
:201C40000B2807D00C2801D001207047042A11D002207047082AFBD10029F9D0094B013937
:201C6000A3F1080013F8012D834201F8012FF9D1002070470029EBD0034B00201B680B60C0
:201C8000704700BF38060020CC05002010B584B007F06CFC08B904B010BD42F20343002447
:201CA00002A801A902940394ADF8083007F066FC0028F0D09DF90A30803302D0204604B016
:201CC00010BD9DF80C0000F00C00A0F10400B0FA80F04009DFE700BF10B582B007F046FCED
:201CE00000B3124C6388022B1CD1FFF7CFFF0028FBD101A90E4807F041FC02E06388022BE8
:201D000003D107F033FC0028F8D142F202426388934207D042F20740181AB0FA80F04009B9
:201D200002B010BD012002B010BD00BF080600200100010430B585B007F018FCB8B10D4BAB
:201D40005B88022B13D142F20345002402A801A902940394ADF8085007F010FC38B19DF8F0
:201D60000A305B06F2D09DF80C0005B030BDFF2005B030BD080600200B2801D001207047F8
:201D8000082A01D0022070470029FBD008B50C4B083103F1080011F8012D03F8012F834203
:201DA000F9D107F0E3FB50B1064B5B88022B05D1FFF792FFFFF74AFE032008BD002008BDBA
:201DC0002F0600200806002008B507F07BFE012809D007F0CBFB30B1074B5B88022B02D17E
:201DE000FFF754FF08B1002008BDFFF7A3FFFF28F9D0C0F3801008BD0806002010B507F082
:201E000061FE012823D0FFF741FF04460028FAD1FFF762FF07F0E8FCFFF7ECFD0D4B0E4914
:201E20001A794C80022A08BF1C710C4B1A79022A04BF00221A710A4B1A79022A04BF002244
:201E40001A71084B1A79022A04BF00221A71012010BD00BF8C030020080600201C040020AB
:201E6000AC0400203C050020F8B507F02BFE012832D0FFF78DFD07F079FB48BB1F4A20487A
:201E80002049214B92F805C090F805E04F795E790125882465F3830C65F3830E65F383078E
:201EA00065F3830682F805C0106080F805E00160C480D480CC804F710B601A60DC805E7120
:201EC000FFF77EFD07F028FDA84207D00020F8BD0E4B5B88022BD1D10120F8BD0C4B187817
:201EE000003018BF012007F035FDFFF721FE0128ECD1BDE8F840FFF7A9BD00BF8C030020EF
:201F00001C040020AC0400203C050020080600207B27002070B584B0072800F2AC80DFE8F3
:201F200000F01F61262F325C6C04544C217707F01DFB10B36388022B1FD1FFF7CDFE0128E2
:201F40000CBF0024032407F0F5FC0020FFF7BCFDFFF77CFD01280CBF2046032004B070BDE7
:201F600001297DD0002975D0022004B070BD434C618607F0FBFA0028DCD1002004B070BD41
:201F80003E4C2186D3E731F00702EDD13B4C3C48237EC1F3400561F30003DBB243F00203AD
:201FA000067865F38203657EC1F3800103F0870362F3C71362F3C7158E426576237601701C
:201FC000B5D1304B228B184603A95A8007F0D6FA00280CBF03200020C0E731F00103C3D112
:201FE000C8B2BBE7A1F10B030F2BBDD8234CC9B2A37B8B42C1D0A17399E701F115031A2B0D
:20200000B2D8214D0C2455F834301F4899424FEAC4022CDD14F1FF34F5D207F0A7FA0028DE
:202020009CD04FF0000205EBC40423796079A17903F03F0360F3871361F34702102403A80E
:2020400002A98DF80E308DF80F20ADF80C4007F095FA92E70191FFF7D1FE019908467DE7CB
:20206000FFF702FF012814BF0320002076E7074B02441A60D1E7012070E700BF080600209E
:202080007B270020F805002064CF00009400002081B130B50C4683B0102800F28580DFE8E8
:2020A00000F05C57524D6C69474128221D83831915100B000220704705230B60002003B08C
:2020C00030BD6FF014030B600020F8E71A230B600020F4E70B230B600020F0E7444B002051
:2020E0001B780B60EBE7434B00201B785BB20B60E5E707F03BFA002858D03F4B5B88022B75
:2021000054D140F20343002201A869460192ADF8043007F033FA012863D06FF07F03236058
:202120000320CCE7344B002093F91C300B60C6E7324B00201B681B680B60C0E72E4B0020EC
:202140001B8E0B60BBE72C4B00205B8E0B60B6E7294B00209B7B0B60B1E707F007FA30B1BB
:20216000254B5888A0F10200B0FA80F0400920600020A4E700200860A1E700231E4A0B60E8
:20218000137E03F001030B60127E520744BF43F002030B601A4B1878002890D00B680020AD
:2021A00043F004030B608AE7012088E7FFF75CFE0128B2D140F20343002201A869460192F8
:2021C000ADF8043007F0DAF901280DD06FF07F05FFF714FE15F1800F25600CBF0320002043
:2021E0006DE79DF90250F5E79DF90250F0E700BF7D2700207C2700200806002094000020E0
:202200007B270020F0B589B0074607F0AFF900284ED0344B5B88022B08BF002648D107F060
:20222000F9F86FF01F052D1A03E007F0F3F8C54245D5FFF72BFD01280446F6D000283ED16F
:2022400002A8182142F6014207F0E4FB264D274BFFB28DF817702978069304949DF81430FD
:20226000003118BF012123F00F0301208DF8143007F0AAFB02A801A907F080F928B328784A
:2022800000E040B3BDF80A3003F44063002BF8D0BDF80A40A4B2B4F5105418BF0124003061
:2022A00018BF012007F0A4FBC6B9204609B0F0BDFFF7DAFD012806D0012009B0F0BD3EB9FB
:2022C000022009B0F0BD0646A9E728780124E6E7FFF794FDF4E7FFF76BF9D0E7FFF78EFD14
:2022E0002046EAE7080600207B2700209A06002010B50C46B32C014694BF2246B4220448DD
:202300000AF0A8FB2046BDE81040FFF77BBF00BF9A06002010B507F0D5FB012817D007F083
:2023200025F9B0B9FFF7A0FD012804460DD1FFF701FDFF2805D000F0030010F1FF3418BF44
:202340000124FFF75BFD204610BDFFF757FD012010BD094B5B88022BE4D1FFF797FC0028D5
:20236000FBD1FFF7E7FCFF28F1D000F0030010F1FF3018BF012010BD080600202DE9F04371
:20238000504E83B080460F46356807F0EFF830B14D4B5B88022B02D10020FFF795FB07F0DD
:2023A00039F84A4C241A03E007F034F8C44208D52B79022BF8D0032B06D0002003B0BDE81A
:2023C000F0832B79032BF8D135683E4A2B7A032B07D995F808905FFA89F9A9F10804BC4273
:2023E00007DD2B68002013602871287203B0BDE8F083404605F1090122460AF02BFB09F1CD
:20240000050209F10303EB5CA858314F09F104093B70019015F80930DDF804802D4D2E4A1A
:2024200003F03F03B8F1404F2B70D2F800900BD906F0F0FF294B1B68C3F17E4303F5720398
:20244000C34248BF09F1FF39DFF89CE06FF4BF72DEF800E012EB08024FF0FF334FF00000EA
:2024600043F10003B2EB0E0263EBEE7312EB000843EB0909DFF874E04FEA092143F6095262
:20248000002341EA18614FEA0820CEE9008909F0D5FF134B134A1B7810603BB133680022A0
:2024A0001968204631601A721A7187E73978042049B289B205F0A4FD2978032005F0A0FD28
:2024C000ECE700BF0006002008060020FAFEFFFF7C2700207D2700208803002004060020C4
:2024E0007B270020CC050020981F00206002002010B507F03BF878B10C4B5B88022B0BD175
:202500000020FFF7E1FABDE8104009484FF48731084A002300F05ABFFFF7A6FC0128F2D187
:202520000020FFF7D1FAFFF769FCECE708060020D8050020F12400002DE9F84F364F3748EB
:20254000FFF76EF907F0C6F93846002190220AF05DFB0021902232480AF058FB0021902258
:202560003048314C0AF052FB002190222F480AF04DFB2F4E2F4B002529462046802242F6C8
:20258000010B1F60376075600AF040FB42F202000722022363762276274BB4F81880274FEE
:2025A000FF2101224FF06F0C4FF0A60E4FF0190A4FF0B9092661A4F800B084F80EA084F84F
:2025C0000F90676184F81BC084F81CE0A176627384F83720A3F8028019711880FFF744FC91
:2025E0000128044603D02C462046BDE8F88F144807F020FA2046FFF767FA124A2B46124840
:202600004FF4873100F0E2FE2946104801F0A0F92046BDE8F88F00BF8C030020540000202A
:202620001C040020AC040020080600203C050020D005002000060020F80500208806002015
:20264000CCCF0000F1240000D80500208C01002008B500F08BF880B208BD00BF00F010B981
:2026600038B50C4D04202B685B6998472B6804205B6B984701280446064BF7D11B6840F21D
:202680000140DB699847044B044A1C6013689B07FCD538BDB80100102820086028200840D1
:2026A000034B1B68002B14BF01200220704700BF54070020F8B503880446002B2ED0B3F5C4
:2026C000847F05D1184B1B788B4205D00120F8BD002303800320F8BD144D2B6873B1144BBE
:2026E000144A1B6812685B680220174698470026301847F100012B6898472E600E4B40F22C
:2027000001401B689B6A98470C4B01210C4A196013689B07FCD50B48FFF788F84FF48473D8
:2027200023800120F8BD00BF5602002054070020CC01001004800240B80100102820086052
:20274000282008409800002008B5064B04201B685B6B9847012803BF034B1868C0F340002B
:20276000002008BDB80100103C20084070B5274B1B689BB1264C0023224612F8011B29B99C
:202780000133042BF9D10020014670BD214A002502EBC302E55492E8030070BDFFF7D4FF8A
:2027A00000282FD01C4A1D4B1268134073B91C4A01211346116018680028FCD102464FF4D9
:2027C000807104F0D5FC174B01221A6004F0ACFE0646114A1368DB07FCD5134B134A1B6893
:2027E00014685B680220984723460022141843F1000516B12046294670BD04F099FE2046EF
:20280000294670BDFFF72CFFCCE700BF5407002058070020680200200880024001000080BA
:20282000F09F0240A8025042CC0100100480024038B50E4D00240E4A2C6013680D4923F0B4
:202840000103096813604B6931209847204622464FF4807104F08CFC0122074B2A6019789E
:202860002246BDE83840054801F046B8A80250420C800240B001001056020020AC00002088
:2028800010B5074C2378802B00D010BD00F0B2FF207000210348BDE8104001F059B800BFEA
:2028A00056020020AC0000200AB90020704708B508461146FEF702FC002008BD0FB400B588
:2028C00083B004AB53F8041B04481A46019300F04BF803B05DF804EB04B07047BC000020FB
:2028E00038B50446154600680AF0B4F8236800201D44256038BD00BF0EB430B586B009AB62
:2029000053F8041B084D01901A4601AC04A803930495059400F028F8019B00221A7006B0D8
:20292000BDE8304003B07047E1280000102970B50C46054602D80AE0102C0BD92B686868CD
:20294000084910229847103C0028F5D070BD08460029FBD022462B6868680249BDE8704002
:20296000184700BF70D000002DE9F04F82460F468FB007924FF0000B3B78002B00F0E8802F
:20298000252B08BF3E461BD03C4602E0252B04D014466378621C002BF8D1974216460CD071
:2029A000D51B39462A46DAF80030DAF804009847002840F079826378AB44002B00F0C88001
:2029C00073780136002B00F0C38019460025A1F12003102B1BD8DFE803F0171A1A141A1AC3
:2029E0001A1A1A1A1A111A0E1A1A090045F0100516F8011FEBE745F00105F9E745F006053A
:202A0000F6E745F00805F3E745F00205F0E7A1F13102082A0B46374600F2DC80A1F13002D3
:202A2000092A4FF000040AD804EB840403EB440417F8013F303CA3F13002092AF4D92E2BB7
:202A400000F0D1804FF0FF366C2B00F03D81682B00F04281782B00F28180DFE813F079005D
:202A60007F007F007F007F007F007F007F007F007F007F007F007F007F007F007F007F0066
:202A80007F007F007F007F007F007F007F007F007F007F007F007F007F007F007F007F0046
:202AA0007F007F007F007F00BE027F007F007F007F007F007F007F007F007F007F007F00E5
:202AC0007F007F007F007F007F007F007F007F007F007F007F007F007F007F007F007F0006
:202AE000BB027F007F007F00B802B502B2027F007F007F007F007F007F007F007F007F0000
:202B00007F007F007F007F007F007F007F00AF027F007F007F007F007F007F007F007F0093
:202B2000AC027F00A902A602A302A0029D027F00A6027F007F007F007F009A0297027D005A
:202B40007F007F0091027F008E027F007F00940258460FB0BDE8F08F45F4407505F4E06396
:202B6000B3F5806F07F1010700F0CE804FD9B3F5C06F00F0A581B3F5E06F00F09A81B3F5C1
:202B8000A06F7FF4F9AE079B012C1A6803F1040307938CBF04F1FF340024EB078DF82020D8
:202BA00000F1D08150462146FFF7C0FE002840F07B81DAF80030DAF8040008A90122984743
:202BC000002840F071810BF1010C0CEB040505EB040BD1E62A2900F08C800B462E2B4FF0B4
:202BE00000047FF42FAF7B78791CA3F13002092A7AD80F46002606EB860603EB460617F86C
:202C0000013F303EA3F13002092AF4D91CE7B3F5807F00F0B080B3F5407F7FF4ADAE079B9F
:202C2000C34A1968C34815F4804F03F1040308BF9046079318BF80460A460023002900F0C8
:202C400094810DF133094846110941EA03714FEA131E02F00F0673460A4618F8061000F846
:202C6000011D52EA0301EFD1B9EB0006034600F07E810336B4424FF030024FF078014FF0BD
:202C8000230300F8022C8CBFA41B0024EA0700F8011C00F8033CA0F1030800F1A181504638
:202CA0002146FFF743FE002840F0FE804146DAF80030DAF8040032469847002840F0F4801E
:202CC0005E4406EB040B57E67B786C2B00F00481013745F06005BDE67B78682B00F0938117
:202CE000013745F04005B5E62A2B00F091810F46A8E6079B771C1C680433002C0793B8BF20
:202D000045F0010573789AE6079BD3F8009004330793B9F1000F00F08F8299F80030002B99
:202D200000F0B2824B4613F8012F002AFBD1C9EB0308002E02DBB04528BFB04644458CBF3D
:202D4000C8EB04040024E90700F1E08050462146FFF7ECFD002840F0A7804946DAF8003067
:202D6000DAF8040042469847002840F09D80D84408EB040B00E6002EABBF25F010050123B7
:202D80000196019315F40053049305F0E00300F0A880402B00F07F8200F24181002B00F0FA
:202DA0002D82202B40F05A82079B1A1D079293F90020D317002A73F10001C0F22A82CDE962
:202DC00002230023059305F4C053B3F5805F00F09281B3F5C05F00F0BF81B3F5006F00F07F
:202DE00067810DF136064FF00008019B41F20802984541F6080303EA050380F033810199BF
:202E00009342C8EB0101019100F0468141F6080201999342414400F031814FF000094A4630
:202E2000049B73B1059B002B40F0838105F00603022B00F01B824048062B04BF02464FF015
:202E4000010909EB01039C428CBFE41A002415F00103049306D1E80640F1F681019B234415
:202E6000049C0193B9F1000F07D01146DAF80030DAF804004A469847B0B9019B08EB0B05E8
:202E8000102B40F291819B4603E0BBF1100F40F28E81DAF80030DAF8040028491022984789
:202EA000ABF1100B0028F0D04FF0FF300FB0BDE8F08F079B1A680433C2F800B007935BE583
:202EC000DAF80030DAF804001D49012298470028EAD10BF1010B4FE5BB7845F0800502376D
:202EE000B8E5402B00F0C68100F2A980002B00F09881202B40F02181079B049A05921A1D19
:202F000007921A780023CDE902235CE74946DAF80030DAF80400424698470028C4D1504624
:202F20002146D844FFF702FD00283FF421AFBBE73CD0000028D0000060D0000080D00000C8
:202F40006CD00000DAF80030DAF8040008A9012298470028A8D1504621460BF10105FFF714
:202F6000E5FC00283FF433AE9EE70DF13303302203F8012C581E04267CE645F41065EDE57F
:202F800045F48065EAE545F4C855E7E545F48855E4E545F4E065E1E545F48135DEE545F414
:202FA0000075DBE545F40245D8E545F42455D5E545F4A065D2E545F4C135CFE545F4B2452B
:202FC000CCE545F4A135C9E545F48445C6E545F44245C3E545F4E135C0E545F4C065BDE57A
:202FE0004146DAF80030DAF804003246984700287FF45AAF504621465E44FFF797FC002827
:203000003FF45FAE50E7BB7845F02005023721E5079ABB78111D07911668023714E5602B98
:2030200000F0EC80802B40F01981079B073323F0070303F108020792D3E90023BAE6602B25
:2030400000F0EF80802B78D1049B0593079B073323F0070303F108020792D3E90023CDE9C1
:203060000223B0E6934200F0EC800022019241F608020199934241447FF4CFAEDDE902239F
:2030800013433FF4CAAE874B15F4804F864A4FF0020908BF1A46C3E60B46002908BF012336
:2030A0000193019B4FF000094A4603EB0801B7E6DDE9028942464B46134300F0E7800DF15F
:2030C00036031E460693404649460A22002309F0B5F930324046494606F8012D00230A22BD
:2030E00009F0ACF98046894658EA0903EBD1069BC6EB030879E6DDE90223134300F0C68060
:203100000DF1360306939E46DDE90223D00840EA4370DE0802F007013346024630310EF853
:20312000011D52EA0301F1D1069B7646CEEB03085BE64FF001095D4A83E605F4C053002286
:2031400000200021B3F5805F0592CDE90201D2D0B3F5C05F40F08580DDE90201544A554BB2
:2031600015F4804F14BF9046984602460B46134300F08C800DF1360306931E4602460B4638
:20318000110941EA03714FEA131E02F00F0073460A4618F8001006F8011D52EA0301EFD1C6
:2031A000069BC6EB030820E6019B9B464BB15A46DAF80030DAF804003F49984700287FF4B9
:2031C00073AE31464246DAF80030DAF804004D44984700287FF468AE019B2B441E46049BC8
:2031E000002B3FF46EAD50462146FFF79FFB00287FF45AAE06EB040BFFF7BEBB079B1A6893
:2032000004330793002A4FEAE27373F10001BFF6D6AD524263EB4303CDE9022301230593C9
:20322000D1E5049A079B05921A680021104604330793CDE90201C6E5DFF884904FF006089B
:2032400077E5012301932CE7504621460292FFF76DFB029A00283FF405AE25E6002200235E
:20326000ADE5DDF814800DF13606BEE5134A4FF00109E6E5079B049A05921A1D07921A88BC
:203280000023CDE902239EE5984652E54FF000080DF13606A9E5079B1A1D0792B3F900204B
:2032A000D31787E554D0000050D0000058D0000028D000003CD0000080D000005CD00000CC
:2032C00064D00000F0B5038883B005465BB14A2B04D188291BD0012003B0F0BD00230380F3
:2032E000032003B0F0BD194800F018FC044630B1201DA16800F08CF92468002CF8D1144B20
:2033000001221A704A2301202B8003B0F0BD0F48019200F003FC04460028F3D0019A031D9E
:203320009A4205D02468231D002CEBD09A42F9D10648214600F038FC064E6269A3693768E0
:2033400032600BB1E06998473760DBE75C0700207E2700206807002010B5064B002406483F
:203360001C7000F0D7FB2146BDE81040034800F0EFBA00BF7E2700205C070020C4000020D4
:2033800070B504460D48049D0078A261E361656130B9A1600A482146BDE8704000F0C0BBE0
:2033A000084D094B2E68201D2B6000F031F92E602146BDE87040024800F0B2BB7E27002036
:2033C0005C07002068070020C400002010B5044C82B024680094FFF7D3FF02B010BD00BF8A
:2033E0006807002070B5094B04461B783BB1084D084B2E6804302B6000F014F92E6021460D
:20340000BDE87040044800F08BBB00BF7E27002068070020C40000205C07002070B5094BE2
:2034200004461B783BB1084D084B2E6804302B6000F002F92E602146BDE87040044800F055
:203440006FBB00BF7E27002068070020C40000205C07002010B50A4B04461B783BB9C360BA
:2034600003612146BDE81040064800F09DBB043000F008F92146BDE81040024800F094BBEC
:203480007E2700205C07002010B50446006830B1002100F05DFA54F8040F0028F8D110BD07
:2034A000704700BF10B50E4C2368B3B1FDF77AFC22685168136892681944091A4AB192E871
:2034C000180023441B1A9268994228BF1946002AF5D1044B0844186010BD024A136010BDC1
:2034E00060070020640700202DE9F041038805467BB1592B08D1872912D0822920D059236B
:203500002B800120BDE8F081002303800320BDE8F081254A0120136059232B80BDE8F081AA
:20352000214F3B68002BEAD0D9688A4203D024E0D9688A4220D19B68002BF9D13B60DEE759
:20354000194F4FF000083C68002CD8D0002604E0A3682646002BD2D01C46204600F064FAE0
:203560000028F5D0E0688821224600F0C5F978B10E4800F00DFAEBE73B6099680029BED0BC
:20358000C86882420BBF89680B4699608968F5E7E060A3682EB1B360C4F80880FFF782FF6D
:2035A000D1E73B60F8E700BF60070020D400002010B50446104800F0EBF91049E3680A684E
:2035C0004BB142B194420FD0134601E09C420BD09B68002BFAD10A4BA2601B680C60E360D2
:2035E000BDE81040FFF75EBF054B1B68E360BDE81040FFF757BF00BFD40000206007002072
:2036000068070020014800F0C3B900BFD400002010B5044600F0F4F92046BDE81040FFF776
:20362000C7BF00BF10B5044600F0F2F92046BDE81040FFF7BDBF00BF10B5044600F0EEF9E9
:203640002046BDE81040FFF7B3BF00BFC068B0FA80F04009704700BF05C81044704700BF50
:20366000024B1868003018BF0120704760070020024B186808B1024B186870476007002086
:203680006407002010B5114B04461A68904218D05AB19368834208BF13460AD02BB19A6855
:2036A000A24206D01346002BF9D10023A360E36010BDA2689A60FFF7F5FE0023A360E36076
:2036C00010BD82681A60FFF7EDFEEEE7600700202DE9F843DFF8A480274DD8F800702E68E6
:2036E000874247D077B33B4601E0002B3BD01B689842FAD133B3837B8946044623B300230A
:2037000083736FB1BC424FF0870106D0BB7BDB0703D53846224600F033F83F68002FF1D16F
:20372000A3683BB14C4505D02C6004F10C00832100229847D8F80000844208D12368C8F840
:2037400000302E60BDE8F88338468442F6D00028F7D00368A34208D0002BF2D01A68A24217
:2037600004D01346F8E7BDE8F883034622681A602E60E7E73B46BDE7680700206C0700202D
:2037800070B586687EB104460A4802230460A37304F10C000D46B0470238012804D9832D71
:2037A00002D00123A37370BD20462146BDE87040FFF78EBF6807002070B50C4A0C4B14688E
:2037C00000251D7084B1012601E0246864B1E37B002BFAD0A673E573204682210022FFF774
:2037E000CFFF2468002CF2D170BD00BF6C07002081270020024B1878421C1A70704700BFFE
:203800008227002070B407480749084A0023084D084C8A2603700B6013602E70237070BCA0
:20382000704700BF802700206C07002068070020822700207F2700202DE9F041244D2B783F
:203840000BB1FFF7B9FF234E3378D3B1DFF890E0214F9EF80020013B02EB420189007C1868
:203860000132A068DBB202F01F0233708EF800207F5CD4F8048098B1812F06D0827BD20754
:2038800005D428781844BDE8F0810123837339464246FFF775FF337828781844BDE8F081F5
:2038A0000E4A146834B9ECE7A37BD9070AD42468002CF0D02B78002BF6D0FFF77DFFA37BFC
:2038C000D907F4D5204639464246FFF759FFEEE78127002080270020700700206C070020F6
:2038E0007F270020024A034B10781B78184470478027002081270020F0B40C4D2C78202CBE
:2039000011D00B4B0B4E1B78671C234403F01F0303EB43039B00F418A06062602F70F15404
:203920000020F0BC70470120F0BC7047802700207F2700207007002038B5837B034CDB0740
:20394000256801D5FFF71CFF256038BD6807002070B404460D4D2868A04206D038B10346A8
:2039600000E023B11B689C42FBD170BC7047002CFBD0012600232060A673A3810A462046CF
:203980002C60812170BCFFF7D7BF00BF6C07002038B1837B013B012B03D8024A01231370D2
:2039A000C37370478127002005F02EBD38B5094C049D226822B180E82A002060002038BD0B
:2039C000024680E82A000846226005F01FFD002038BD00BFF008002010B5084C206858B196
:2039E00000224368816822609847236823B1BDE81040186805F00ABD10BD00BFF00800207C
:203A000010B541600446FDF7CDF9206010BD00BF90E80C0013440360704700BF10B504466D
:203A2000FDF7C0F9206010BD10B50446FDF7BAF923686268C3F10103184482422CBF00209E
:203A4000012010BDF8B504880546672C0CD0792C1BD01CB1002303800320F8BDFFF7CAFEEC
:203A60001E4A1F4B10701C601D4C264604E00A2813D023687E2B2BDD1A4800F0C1F8431C04
:203A8000F5D167232B800120F8BD852901D00120F8BD134C00232360E6E7114C124F2368E5
:203AA0000E49002603F1010E3A4609783046FE54C4F800E0FFF720FF0C4B32461868852117
:203AC000FFF71AFF0028E5D179232B800120F8BD05495A1CC8543260CEE700BFDD2F0020CA
:203AE00074090020F8090020F40800206807002008B505480549802200F07AF8BDE8084014
:203B000003480021FFF724BFF809002078090020E400002000230360704700BF006870477F
:203B2000026842B1914203D11BE099420ED01A461368002BF9D100230B6002680AB90EE054
:203B40001A461368002BFBD1116070470B68136000230B6000230B600268002AF1D10160B2
:203B600070470B680360F3E710B404684CB1A14217D0224602E0994208D01A461368002BE4
:203B8000F9D10C6001605DF8044B70470C460B6813600023236004680C6001605DF8044B78
:203BA00070470B680360F4E7026842B18A4203D10BE0994204D01A461368002BF9D170477F
:203BC0001968116000221A607047134612680260F8E700BF03682BB100201B680130002B87
:203BE000FBD170471846704700B10068704700BF0023013A0160027143718371704700BF4E
:203C00000346807959791A79091A114208D010B4411C1C680A40205C9A715DF8044B7047DE
:203C20004FF0FF30704700BF013A0A44914230B414D20C4625786378023403EB05239BB217
:203C4000184480B2834284BF013080B2A242F1D8CB43134423F0010302331944914201D00C
:203C600030BC70470B7830BC1B02184480B2834284BF013080B2704730B5134B134D1C782E
:203C80002B796A79C4EB0323134483B09BB2ADF80630BDF8063005F108011844202280B25C
:203CA000FFF7C2FFBDF8062004F12801294492B2FFF7BAFF18B94FF6FF7003B030BD40BAD5
:203CC00080B203B030BD00BF83270020B0270020022318462DE9F0412C4D2D4E2A782D4FB6
:203CE0002832B1184978C90001F1070E704549DC8118745CDFF89880012C31440AD01DD372
:203D0000632C0DD13B70234C02F0A4F8D0B90120BDE8F0814C7802340319DBB21846E5E701
:203D200004F0C004802C1AD0C02C25D0402C1FD04B7802330344DBB21846D7E7431CDBB225
:203D40001846D3E72B78227828331344984498F801300020134402332370BDE8F0813B70BF
:203D600002440221042005F0F9FF0220BDE8F0813B700120BDE8F08198F818103B70FF2924
:203D8000EED1C4E73B700020BDE8F08183270020B0270020852700203A20FFF76DBF00BF10
:203DA00008B506F013FB06F0C3F800F095FC064A064B4FF48061118003F5A07100221A82F3
:203DC00020338B42FBD108BD6A270020B82B00202DE9F041134E347814B3134F04F12703E2
:203DE0003D88AB4204DB00233B803370BDE8F081DFF83880A5F12802121B04F128012C1BBA
:203E00004144A4B208F1280008F09AFEA4F12803191200223C8088F8053088F80410327062
:203E2000BDE8F08183270020A0270020B0270020F0B50746DFF888C01E4EBCF8005001350D
:203E4000ADB2B5F5FA4F15D26CBAA4B21A4A96461346188A2033A042F1D0B342F9D1ACF819
:203E600000500023108A203240B101330A2BF9D10020F0BD4FF480551024E7E75E010EEB80
:203E800006052C8269820C4B67B12C4638687968BA68FB680FC4094BB6441B7928468EF8EE
:203EA0001430F0BD05F108029F516F6042F8047B1760F0E7F82C0020B82B0020702E002046
:203EC0006A2700202DE9F04F042883B020D0954BDFF87482944F0528C8F800303B6022D053
:203EE00013F83C2CA3F13C0402F0F002602A30D08E4D8F4EDFF858A2DFF85C9200232B80F1
:203F00008AF8003089F80030337003B0BDE8F08F884C864D864E2388002B44D1DFF830A2B5
:203F2000DFF83492EAE7844A1268128A002ADFD08248804C7D4D7E4E00220C3B0821C8F8D8
:203F400000303B60026022802A80317001F012FEE1E72279754D617912022888561886424D
:203F60005DDC207A28310A44FF282A8057D0744EDFF8DCA1DFF8E091A1790022363B336031
:203F80008AF8002089F8002000295ED1012389F80030FFF79DFE012800F0AA8049D3022897
:203FA00053D1634E36E0644A664C126803F1080149BA002092F814C0A185E085118A303335
:203FC00021859BB2508AA3F128014FEA212E11272B8084F807C084F804E060856171A7717A
:203FE00004F118050FCA85E80F00294604F1080006F054F9544B04F13C0238461A60FFF7EB
:204000003BFEC04380B280B1E085002360222270637063800023337003B0BDE8F08F444E80
:20402000DFF82CA1DFF8309168E74FF6FF73E385EBE79AF8003003F12802224451780833BA
:2040400003EBC10332608AF80030404806F006F8002800F035813368DFF8FCB03C491A78EB
:204060003C2A00F20E81DFE812F0E1000C010C010C010C010C010C010C010C010C010C012D
:204080000C010C010C010C010C010C0145000C010C010C010C010C010C010C010C010C0118
:2040A0000C010C010C010C010C010C010C010C010C010C010C010C010C010C010C010C0130
:2040C000F00043000C010C010C010C010C010C010C010C010C010C010C010C010C01C10043
:2040E0004300AB00FFF7C8FD4FF6FF73984209D00F4E03E7FFF76CFEE38D1120A071114EF5
:20410000002BEFD1B6F82AB0BBF1000FF0D0DFF828A0104B0F4EB4F82890CAF8003006F509
:20412000A07421E0EC270020A4270020A0270020982B0020B42B0020A02B0020A82B0020A5
:204140009C2B0020B0270020A42B0020C827002083270020B82B0020842700202036A642AD
:20416000CAF8006000F0A680338A002BF6D09B45F4D1738A7A4810220BB14B45EED133681D
:204180002BB973681BB9B3680BB9F36823B1314608F02CFC0028E1D12B887249DFF8DCE10B
:2041A000714C724E0022303B02202B80C8F800103960CEF800202280307001F0DBFCAAE63F
:2041C00099F80020900770D550065AD442F040028BF800200191FFF77BFD0128019987D09D
:2041E00056D302283FF4DDAE336838E73A20FFF743FD4FF6FF7398427FF47AAF9AF8003075
:204200005B4E2833E05C01F0BDFB9AF800302833E2185178E05C05F07DFD012800F09480FD
:204220002B88524E002B3FF469AEF3E699F800200191D10725D442F001028BF80020FFF7FB
:2042400047FD01280199CBD152E799F800E00EF0040000F0FF02A0B99AF800004EF0040EE3
:2042600000F12803234493F803C08BF800E0BCF1000F6DD15A78083000EBC2020A7033604A
:20428000EDE61A1B0420012105F068FD374EC1E69AF8002002F1280323445878083202EB1C
:2042A000C00233608AF80020D9E642F002028BF800208FE701200421002205F04FFD70E6FA
:2042C0002C4805F081FF00287FF4C5AE227E2A4BFF2A55D048F2FE00198B814250D0198923
:2042E000814253D081B95A8972B99A8962B9DA8952B91B8A43B9628A1F4B2AB99A8A1AB913
:20430000DB8A002B3FF4F4AE228B1B4B82B95A8B72B99A8B62B9DA8B52B91A8C42B95A8CA3
:2043200032B99A8C22B9DB8CB3F5807F3FF4E0AE2B88B3F5A06F67D8E3790F4A012B5CD903
:20434000013BD371094E65E600232B80337067E7114600F12A02042005F000FD034E59E662
:20436000B8270020E0270020B42B0020982B002083270020C8270020B0270020A82B002072
:2043800048F2FE03218999427FF4B2AE2189224B79B9598969B9998959B9D98949B9198A02
:2043A00039B9598A29B9998A19B9DB8A002B3FF49FAE218B184B81B9598B71B9998B61B9AC
:2043C000D98B51B9198C41B9598C31B9998C21B9DB8CB3F5807F3FF48BAEFF2A3FF488AEF6
:2043E0000E4805F01DFE024600287FF481AE0120022105F0B3FC0A4E0CE600210A4603207F
:2044000005F0ACFC064E05E6022000214FF4A06205F0A4FCC5E500BFB0270020C827002034
:20442000982B0020030C80B2020A5BBA9BB242EA002043EA004070472DE9F04F9B4C85B009
:20444000E3799B4DFF2B06D09A4F00233B802B7005B0BDE8F08F2B7803F12C00204402793B
:20446000FF2AF1D0E21892F82920924F002AECD13988DFF84C92904E40334FF0140E9942BA
:20448000C9F8002086F800E072DD23445A78A046002ADAD01A78012A32D12289C9F800303F
:2044A00062B9B8F80A204AB9B8F80C2032B9B8F80E201AB9B8F81020002A4BD053F8020F0B
:2044C00002AA5968DFF8FCA103C27C4806F09CFA0246CAF80000002833D006F08DFA83466B
:2044E0000028B2D0D9F8000059460230082208F07DFAD0B9DAF800305A7C0AB902225A74C1
:20450000297833782C31CA1822445278B7F800E003EBC202D2B2531873453270634826DAAB
:2045200043445A78002AB5D18FE7584602A9012203F012FC002888D0DAF8003002225A741B
:20454000DEE705230190009302A902235B4806F037FAD5E7B8F81220002AAFD1B8F8142084
:20456000002AABD1B8F81620002AA7D16DE70844043005F073FDDFF85081C8F80000002844
:204580003FF463AF2289494B7AB95A896AB99A895AB9DA894AB91A8A3AB95A8A2AB99A8A40
:2045A0001AB9DB8A002B3FF450AF444E304605F055FD00287FF449AF40F2FF23228BA6F1EC
:2045C000080C9A420BD1738A4BB9B38A3BB9F38A2BB9338B1BB9738BB3F5807F54D0DFF84A
:2045E000EC90484605F03AFDD8F80030864698427FF42BAF96E80F0089E80F002B7823447B
:2046000030330FCB86E80F0000264FF0280C3A20FF218822E02384F8296084F8282084F8DB
:204620002C3084F805C0A071E171668026715EF8020FDFF89CC0DEF80410DEF80820DEF8A5
:204640000C30DFF890E0ACE80F00DEF80000DEF8042002236021C4F84200CCF8062084F85A
:20466000403084F841302E706670A4F84E6066852170A4F84A60A4F84C60FFF78DFBC04394
:20468000502360853B80E3E6337FFF2BA7D196E80F0006F1100E8EE80F002B78D8F800E070
:2046A000634430330FCB86E80F00ADE7B027002083270020A027002086270020B827002091
:2046C000040A0020000A0020080A0020C8270020E0270020A8270020014805F039BB00BF3A
:2046E000F400002008B5064801F03AF9054B00220120FD21187099705A70DA7008BD00BF9D
:2047000081510000880B002070B413780D7A83F002039D42044614D00B891BB94B89B3F575
:204720007F4F2FD01E4A51F8085F13684E68012003F10801A0405E601D601160C0B270BC1B
:204740007047487A53789842E6D1887A93789842E2D1C87AD3789842DED1087B13799842EB
:20476000DAD1487B53799842D6D1887B93799842D2D1D379CA7B9A42CED1032303FA04F0CF
:20478000C0B2DCE78B89FE2BCCD1054DC9892A68022322F8021B03FA04F02A60C0B2CEE7D6
:2047A000140A002010B5114C0220A17903F028FCA379112B0FD0062B0DD03A2B05BF94F84C
:2047C000281094F82930002143EA01210120BDE8104003F015BC238D618D01209942A8BF71
:2047E0001946BDE8104003F00BBC00BFB027002010B5084C2378012B01D0002010BD014610
:204800000822A01C08F0F2F800280CBF2046002010BD00BF880B002008B50146102003F0F1
:20482000FDFB044B04489B6800219847BDE80840FCF716BCA8D100003D48000010B50C461B
:204840001146204606F014F9044B1B6813B19B6820469847024B1C6010BD00BFEC10002049
:20486000980B00202DE9F041154D07462A4600239078713230B101330C2BF9D14FF0FF30BD
:20488000BDE8F081C3EBC30403EB04142E19717003F010FBDFF830800A4A98F8003011684D
:2048A000C01A2F55B070CC1803F004FB98F800202146821AF01C08F0CDF8B078BDE8F081EA
:2048C0009C0B0020940B0020882700202DE9F04F074683B092BB604E894636F8063C154619
:2048E0009346FF244FF0FF38DFF878A1002B37D1B8F1FF3F4DD0012D06F1B8062BD1B8F197
:20490000FF3F23D0B82000FB08F5DFF850810F2008EB0506A6F81290378203F08BFB014608
:20492000304603F0B3FB05F1180040444021FFF767F8234658B203B0BDE8F08F474D002614
:204940002C46238ABB422CD0B83436B3FF2358B203B0BDE8F08F36F8063C0125002BC7D00F
:204960003046FFF761F868B13D4B26F806BCE9B29A7822B11A788A4208BF83F802B071337B
:204980005345F5D1B8F1FF3FB5D136F8063C002BB1D1ECB24FFA84F8ADE7238A0126BB4267
:2049A000D2D1638A002BCFD00F20019203F042FB0146204603F070FB019A0028C4D0F4B2A3
:2049C00011462046FFF74EFF0028019A0CDB0028BCDDB82303FB06562346B28A1044B0820C
:2049E00058B203B0BDE8F08F4FF0000BDA461A4FDFF870904FF0B80837F8063CEBB1564585
:204A00001BD038460192FFF70FF8019AA8B100218E468C465FFA8AF008FB00535982104B83
:204A2000997831B11978814204BF83F802C00EF1010E71334B45F3D1F344B837BAF1000F49
:204A400007D0BBF1000F81D011462046FFF70AFFBDE74FF0010ACFE7300A0020180A002077
:204A60009C0B0020E81000202DE9F04715090F2D07469A4602F00F043FD00F2C34D0A14649
:204A8000A84666195DBB0F2E03DD5CB9E5B9BDE8F08707EB0800C6F11002002108F0B6F81B
:204AA000002CF3D0DFF87480C9F11000D8F8006038443146224607F0CDFF022C26D0344488
:204AC000C8F80040BDE8F08738465146BDE8F04705F05EBC454620264FF010094C462A468F
:204AE000384607F0B7FFCEE7A84605F11006002DF2D14FF010094C46D4E70F2C4FF01008B5
:204B0000E8D042464546A146A618E9E70A2DD6D8FF22FE23FA723B73D1E700BF140A00205F
:204B20002DE9F04F0F2089B0DFF8F482B24D03F081FA002703F046FB88F800702F7003F021
:204B4000A5F9AE4E3060042003F062FA3368DFF8D4E21C785A7804F0F80100B2C029CEF8DC
:204B6000000042EA042274D0E02963D1297893F8049093F802E0D878C2F30A044B1D4A462A
:204B8000214640EA0E202B70FFF7A0FEB0F1FF3F83465BD09A4AB82303FB0023B3F814A015
:204BA0000123A245009734BF4FF0000A4FF0010A019303F07FF92B788F4D834246D803F079
:204BC00079F92B7898F80080C51A08EBC9098D4AA944B9F57A7F156038D837B1316807EBA9
:204BE000080019442A4607F035FF002C78D0009B53B183494FFA8BF3B82000FB031305EB36
:204C0000080292B29A821A84BAF1000F40F00E81019BDBB97C4B45441D807C4C236823B1CF
:204C2000FFF7C0FD23685B68984700F0BFFE09B0BDE8F08FBB4600973C46754F2A78995C95
:204C400001F0E000602854D041291DD009B0BDE8F08F297893F802E0D878C2F30A040B1D5A
:204C60003A46214640EA0E202B70FFF72FFEB0F1FF3F8346EAD0624FB82303FB00770122B1
:204C8000336822370092D9E73946501CC0B2034403F12000D3F800A0D3F80490D3F808C0B9
:204CA000D3F80CE010338342C1F800A0C1F80490C1F808C0C1F80CE001F11001EAD118682B
:204CC0005B6808604B6098F800302932283388F80030009B4FF0000A2A70D146019368E760
:204CE000019B002B96D0BAF1000FAFD0464B1C8093E7981890F801900232DFF82CA14FFABD
:204D000089FC1344BCF1000FCAF80030BCBF0133CAF80030CA064AD501F0080303F0FF0E7D
:204D2000002B40F0B081DAF800301A461B78C3F3830343F060033B7012F8010BA7F802E0DE
:204D4000830803F0300343EA8013CAF800207B7001F0040303F0FF02019233B9DAF80030A8
:204D600013F8012BBA71CAF8003011F0030100F09780284B5B5CFB7119F0400FC9F3011315
:204D800000F06281BCF1000FC0F299810022002B00F08E8020490878012800F0B6811F4ACB
:204DA00000239A4699461360009B019301E70B0700F16F81DAF800301A4633F8010F9B78E4
:204DC000A7F80100FB70787812F804EB00F00F00019202464FEA9E0303F0300040EA8E1040
:204DE000104303F00F03019A43F06003CAF800203B707870ACE700BF88270020940B0020D5
:204E0000180A0020E8100020A0270020EC100020B0270020C0D00000880B00200C0A0020C5
:204E200087270020100A0020140A00204FFA8BF7B82101FB07F1DFF834A3C2480AEB0103E3
:204E400019461A8C9C822231BF4E07F003FEBD4B06F24C5916F8012C22B116F8031C8F4226
:204E600000F03B8171364E45F4D100221046B823FFB203FB07AAB54B5FFA8BFCAAF8122020
:204E800003F24C519A781AB11A78624508BF987071338B42F6D1019B002B3FF4BBAE25E7F4
:204EA000DAF8003013F8012BFA71CAF8003063E707F1080204920593A54A0F20D25CCDF8D1
:204EC0000CC0029203F0B6F805990346029A0498FFF7CAFDDDF80CC009F0080303F0FF025C
:204EE00009F0030E002B36D019F0040F11D1994A0EF1FF331288012BADF81C2040F21881F3
:204F0000954B07F1180013F80E2007A90023FFF7ABFD98F8002002F1280388F80030019BDD
:204F2000002B3BD1DAF800303268DFF844929B1A2B70002C00F09A80A4F128031A127B7193
:204F40003A71BB79112B00F0C080009B4FF0000AD14601932DE619F0040F00F0C880BCF163
:204F6000000FC0F2DE807D490B78012B7FF417AF4B7893427FF413AF794A754B102013F8D9
:204F80000E901160029103F055F8029903464A46023107F11800FFF767FDBAE7DAF800307B
:204FA000197801F0F801F029BED11121B971187800F0F301F03900F00400C0B20329C4D8A7
:204FC000DFE801F0382F2002597802330909A1F5756189B2090241F0F001398513F8011CBE
:204FE00001F00F01A1F5756189B2090241F0F0017985CAF80030002800F0BC80303288F8B6
:20500000002091E759780433A1F5805189B2090241F0F001398533F8021CCAF8003079852A
:20502000E9E7B3F801100433398513F8011CA1F58051D9E7B3F801100533398533F8021CA5
:20504000CAF800307985D6E7464A0F20D25CCDF80CC0029202F0EEFF029A0346424907F14A
:205060000800FFF701FDDDF80CC035E702F022FF99F8002098F80030801A0344283B1A1283
:205080007B713A715DE7002360223A707B707B805EE6DAF80020602310463B7010F8013B02
:2050A00003324FEA930E0EF0300E03F00F034EEA03037B700388CAF800207B8048E62A783F
:2050C00031680A449278120961E6BB884FF0000ABB85009BD14601936BE516F8020C314688
:2050E00003EBC000009307F0B5FC009BBAE61D4B102013F80E9002F09DFF4A4603461A4981
:2051000007F11800FFF7B0FC03E7487890427FF446AE134A881C116007F10802059004925B
:20512000CAE632682B7813449A7802F00F021AE7DAF8003013F8012B8DF81D20CAF8003028
:20514000DEE600BFB02700209F0B00209C0B0020DCD00000BCD00000D8D00000880B0020B1
:205160000C0A0020C4D00000C8D00000180A00208827002033F8021BF985CAF800303DE7E0
:205180002DE9F04FB14EDFF8F4A2002387B033708AF80030054602F0BFFE02F077FEAC4B47
:2051A000AC4C1B6820600BB1FFF7FCFA04A80190002D00F0A682294602F068FFA64B1B886E
:2051C0003E2B36D99AF80070D4F8008000230237A24D08F80730A24808F102032B60FFF71E
:2051E00007FB002800F00F8108F103032B604FF08009DFF874B29BF801209BF80010130943
:2052000043EA0113DBB2980840EA8313DBB210075FFA83FE5FD1BBF8020000285BD108079A
:2052200040F0F98012F0F00F40F0F5807823029361E0DFF834B29AF800C0DE4623680CF1F3
:205240000105EDB241221D441A700BF1200877460FCF474528606960AA60EB600EF1100E4D
:2052600005F11005F3D1BEE803002860696033780CF1290C28338AF800C03370019910207E
:2052800002F0CCFE774B744D1B689847724B0028B3F8009036789AF80080ACBFC0F17D07ED
:2052A0006827C6EB0902C8EB0703B8BF15209A4240F3B880C0F178031E46029302F0B2FA30
:2052C00099FBF6F909F101098145C0F2D980002007B0BDE8F08F090703D112F0F00F00F0A6
:2052E00084802A68DBF800001346106003F804EB2B60602302939BF80630112B00F0058273
:205300002A6802F8013B9BF807302A60402B00F00582FF2B00F02282012B61D02A6802F8E8
:20532000013B2A60BBF808304F4A3BB953892BB993891BB9D389002B00F044824B48FFF7B9
:2053400057FA4B4B1860002800F07781427818F80730042043EA021308F807304349454A25
:20536000FFF7D2F960F03F005FFA80F99BF818303D49FF2B00F08F8101F118000391FFF7EC
:2053800037FA3B4A03991060002800F0CC8118F8072043781831134308F807300020019A63
:2053A000FFF7B2F949F004095FFA89F949EA00002F685FFA80FE9BF806302822112B327099
:2053C000294900F0108123689AF800209DF80800FF1A991898548AF8007081F801E04DE7CA
:2053E000029B43F0010302939CE7296823F03F031343214A0B701288CB1C2B606823A1F86F
:205400000120029377E71948FFF7F2F900287FF4EBAE8146EDE62B68702203F801EB0292C8
:205420002B6068E720680BEB0601404407F012FB28884044801B80B202F022FD0198FFF7E4
:20544000EBF9012007B0BDE8F08F00BF87270020EC100020940B0020A0270020140A0020DF
:20546000C827002044D10000B0270020B82700200C0A0020A8270020B22700208827002025
:20548000C24BD4F8008093F80090C14E41464A46002308F10400336007F052FB2B88DFF8F1
:2054A00018E36FEA83436FEA9343BA4AC3F3072309F104095FFA89F988F80030BEF8003047
:2054C00028881178C9EB070703F1010C27F007071A0A88F80330B04EAC4B88F8010088F8DE
:2054E000022059443A4608EB090083F80090AEF800C0376007F0AEFA07EB090080B202F0AB
:20550000BFFC02F095F9A54F804600283FF4DFAE0198FFF781F9404602F0D8F9404602F0E4
:20552000BFF99B4B1B68012B3FF4D1AE043B012B7FF6CDAE2B883A686FEAC3436FEAD343EE
:205540009449C3F3072391F8008013703368029943442D881FFA83F88C4B21F007000521E7
:20556000557030601970374632E0D6F8009020684A450346B8BF91469AF80050B8BF3A60BF
:2055800083F804E04A46284407F064FA09EB050080B202F075FC02F04BF9054600283FF4F1
:2055A00096AE0198FFF738F9284602F08FF9284602F076F9764A336812689844012AA2F1C1
:2055C00004031FFA88F83FF482AE012B7FF67FAE734B0BEB08011B884FEAD80E9845C8EBEB
:2055E0000302C2D32DE74FF2B0020B8D5BBA9BB223F00F0080B290424A8D52BA92B200F0D3
:20560000B28002F47F42B2F5704F00F0308103F47F43B3F5704F00F0FA80624BF0223A70A7
:2056200018687B1DC7F801001F465F4B30221B88327027F8023B2F60C5E648F2FE03BBF868
:2056400008205A499A420FD14B8B6BB98B8B5BB9CB8B4BB908310420554AFFF755F840EADC
:2056600009005FFA80F981E6D5F800C0DFF84CE10CF110032B60BEE80F00CCF80410CCF86B
:205680000000CCF80820CCF80C309BF818304749FF2B7FF471AE91F819C049F0080EBCF199
:2056A000020F5FFA8EFE4B8B00F0BC80002B43D18B8B002B40D1BBF81E303C48002B3BD1A5
:2056C000038C33B9438C23B990F82430002B00F0DA80BBF82020354B72BB93F822205ABBD1
:2056E0002F6849F0090E3A4602F801CB53F8231F063747F8051C1B795FFA8EFE13712F60C7
:2057000059E62C4902F0C2FC58E5029B43F0040302939BF80730402B7FF4FBAD029B43F05C
:2057200002030293FEE548F2FE030A8B9A4202D14B8B002B5BD0CE46D5F80080DFF880C0C9
:2057400008F11007BCE80F002F60C8F80000C8F80410C8F80820C8F80C302CE6029B43F09D
:2057600003030293DEE522F00F0C84457FF449AFF3233B704B8D0A8D1B0A120A03EB0213F6
:2057800003F5AA637B70BB1C4EE700BF88270020980B002087270020E8100020940B002017
:2057A000A0270020D8270020DE270020B0270020A82700203CD100006C270020B827002019
:2057C000C8270020138A002B7FF4B8AD538A002B7FF4B4AD938A002B7FF4B0ADD38A002B9E
:2057E0007FF4ACAD49F040095FFA89F9BEE58B8B002BA0D1CB8B002B9DD11831019AFEF763
:2058000083FF40EA09005FFA80FE2F68D3E5F2233B70BBF82830244A1B0A7B7012883B1D72
:205820007A8001E7002B87D18B8B002B84D1CB8B002B7FF440AF0B8C002B7FF43CAF4B8C93
:20584000002B7FF438AF8B8C002B7FF434AF91F82630002B7FF42FAF2F6891F8273049F020
:205860000B0E07F8013B5FFA8EFE2F60A3E5F1220E4B3A701A883B1DA7F80120BBF82A200B
:20588000120AFA70D0E62A6849F00A0E134603F801CB30F8251F171D80785FFA8EFEA2F8B2
:2058A00001102F60987086E5DA270020D8270020002849D0F0B5078883B0064657B3002770
:2058C0003D4606E0002F1ADB1FD001370235102D13D073195B78745D03EB0424A4B2002CF5
:2058E000F0D0002FC8BF4FF0FF3708DD214618480235FCF7E3FF102DEBD103B0F0BD002D7F
:20590000F4D03A20FBF7BAFBF0E71248FCF7D6FF0127DBE74288AAB98388002BCFD1C7888D
:205920007FB9038973B94FF6FF724189914208D1017B427B837BC07B00900748FCF7BEFF4A
:20594000DBE71F463D46C4E70448FCF7B7BF00BF14D1000010D10000FCD00000ECD0000030
:20596000014B1860704700BF0011002010B51446FEF75EFA18B1024BC4611B68836110BDE1
:205980006807002000B5074B83B08DF80700186828B1054B0DF107021978FDF7CDFF03B0FE
:2059A0005DF804FBAC2B0020DF2F002008B5022100220448FDF7C0FF0349044A00230B8025
:2059C000137008BD00010020A02700208327002038B5294C238863B3B3F5A06F24D8274D63
:2059E0002B8B6BB96B8B5BB9AB8B4BB9EB8B3BB92B8C2BB96B8C1BB9AB8C0BB9EB8C9BB1FB
:205A000000F0DEFA80B12B7EFF2B13D01C4804F007FBA8B11A4804F0F7FF58B304F0ECFFEE
:205A2000184B1B6803B19847174A00231370238038BD38BD134B1B68002BF5D00020F2E78F
:205A40000F4804F0B5FD054678B104F089FD0028E1D1EB6923B11B6A93F8540000F034FDD4
:205A60002846BDE8384004F0DFBD04F053FF0028D1D1D9E7208038BDA0270020B0270020C8
:205A8000C8270020001100208327002030B5038883B00446F3B140F24B30834215D10229E8
:205AA00047D02DD9872937D0882923D12A4B9A424CD02A4B9A421DD11046FDF7C7FDC8B13A
:205AC00004F0BEFBFFF784FF14E000230320238003B030BDFDF78EFE214B1870FDF78AFE33
:205AE000204B402118701C48FDF792FDFEF758F900F084FB40F24B330120238003B030BDA2
:205B00000129F7D1002AF5D0174B05201A60FEF7D9F9FFF75DFFEDE7144B002503F5A0702A
:205B2000996920338A4208BF23F8105C8342F7D1E0E70F4D2B88002BDCD00120FEF7C2F9EB
:205B40002B88002BD6D0FFF743FFD3E710460192FDF77CFD019AACE7F0100020CC2F002010
:205B6000DE2F0020DF2F0020A02B0020B82B0020A0270020074B1B6843B12833186820B180
:205B800005495A680978FDF7D7BE7047034B1B681833F3E7A82B0020DE2F0020A02B002033
:205BA0002DE9F043038885B004462BB18B2B09D11F4B1B788B420BD08B230120238005B05A
:205BC000BDE8F08300230380032005B0BDE8F0831546002AF0D0174B1B789B07ECD5164A1A
:205BE000164BB2F80080164918464246096806F031FFAF690346002FDED0DFF84CE0114E9E
:205C0000BEF82A10BEF82820286A49BAD6F8009089B252BA8DE80A01306092B228460EF19B
:205C200008010EF11803B847C6F80090C4E700BFDE2F0020982B0020A0270020041100205E
:205C4000A42B002068070020B027002030B5C56983B035B1848A284664BAA4B2009404F02B
:205C600041FF002003B030BD2DE9F843184E044630780F461546984628B901461548FDF774
:205C800067FE01233370E782A4F814802DB128686968AA68EB68261D0FC6089A0E4E0D4B2D
:205CA00098FA98F1A261284689B2224635683360FFF75CFEE06128B127B197FA97F9A0F88A
:205CC0001090E0690030356018BF0120BDE8F88389270020100100206807002070B52F4DCD
:205CE0002F4CAB790022267822701BB995F82A30632B02D02670012070BD95F829301BB9FA
:205D000095F82B30042B01D0002070BD95F82D0000F084FE18B390F8553003B3C268937D5A
:205D2000EBB12378928B2A3352BA2B449A8090F85420DA7090F85720012ADBD993F902303B
:205D400005F11800002B0CDB04F032FC23782A331D44AB78E8B163F07F03AB70CAE72670B5
:205D6000D2E704F025FC0028C4D123780F202A331D44AB7843F02003AB7002F05BF900F046
:205D800001FB0028C0D00749002205F03BFC002070BD03F07F03AB70ACE700BFB02700208B
:205DA00083270020C82700202DE9F84FDFF89C80254CB8F800600025B6F5787F277825703E
:205DC00003DD27702846BDE8F88FDFF884C0A6F12802ACF1080B894682465946604606F054
:205DE000AFFE844610F82A0C63210422CBF804500CF82A5C4CF8085C0CF8080C0CF8061CBD
:205E00000CF8052CDAF800201CF82B0C918B00F1080249BA2CF8021C99F80010D2B2083651
:205E200090420CF8031CA8F800600CF82B2C04D91CF82C2C01320CF82C2C08372770BDE8BF
:205E4000F84FFFF74BBF00BF83270020A0270020E02700202DE9F047374D384C2B78283311
:205E6000E218527832B940F263420344195B2344914202D00020BDE8F0870646D87800F00D
:205E8000CDFD07460028F5D02B782833334423449A7890060ED597F85730012B06D904F181
:205EA000180004F085FB08B104F0BEFB384605F00DFDDFE7F968897D0029DBD020490F20DA
:205EC000B3F80490D1F800A05FFA82F802F0B2F80146504601F0E4FE99FA99F91FFA89F242
:205EE00040B12B782833334423449B78590648BFA0F80490FB689B8B934294BF0023012338
:205F000018F0800F03D023B10120BDE8F087002BFAD020B1C7F81001384605F0E9FC287878
:205F2000283030440444A3785A06BFD443F04003A3700120BDE8F08783270020B0270020B8
:205F4000200100202DE9F041194C1A4EA0460023A579194F33702B2D04D03C2D21D00DB176
:205F6000BDE8F08194F8291060790131C900C9B23A88431A521ADBB294F8285092B228313E
:205F800098423A806371A5712144A2F128020B4804D298F80430013B88F8043006F0D0FDC1
:205FA000D9E794F82930DB0008333370BDE8F081B027002083270020A0270020D8270020A6
:205FC00038B5164D2B68EBB1DA68DAB148F2FE01134C208B884215D0217EFF2912D0928BBD
:205FE000B3F864309A420FD004F1080004F036F820B10C4BE2791B799A4207D0BDE83840A1
:20600000FFF76CBE012038BDFFF79CFF2968BDE8384001F10C005431FFF7C6BEF82C0020CA
:20602000B0270020702E0020014B1878704700BF8A270020F0B585B004F0A0FA034650B1D6
:206040009A691846013AD11C98BF9A6104F09CFA03460028F4D104F091FA0446B0B1134F19
:20606000A66904F108039EB90FCB8DE80F00204604F0DAFA04F082FA3B680446DA68B3F8E4
:206080006430918B99420AD1002CE9D105B0F0BD204604F079FA0446002CE1D1F6E7906987
:2060A0006946324605F0AEFA05B0F0BDF82C002010B5044604F062FA30B1C369A34204D051
:2060C00004F062FA0028F8D110BD04F0ADFA04F055FAF1E770B505460E4604F04FFA0446B1
:2060E00088B1204604F03CFA2946102206F07EFC18B9E369B34208BFA061204604F044FA54
:2061000004460028EDD170BD10B504460846D1B21A4604F0FDFA88B1C461236A93F85B2006
:20612000FF2A16BFB3F866304FF0FF325A4390F82230826123F0010380F8223010BD00BFE9
:2061400048F2FE0200B585B0002301466846ADF80230ADF80430ADF80630ADF80830ADF8F6
:206160000A30ADF80C30ADF80E30ADF8002004F00FF90A4890F85530012B02D005B05DF8F9
:2061800004FB694600F09CFA0028F7D0C37943F00103C37105B05DF804FB00BFFC2C002025
:2061A00008B50A4B93F85520012A00D008BD0146184600F085FA0028F8D04FF6FF72C37917
:2061C000828043F00103C37108BD00BFFC2C0020094890F855303BB190F8253023B1C36C5C
:2061E0001BB990F826301BB17047013BC3647047103000F0BFBB00BFFC2C002010B5114B7E
:2062000084B000241C6000F0B3F805F041FB05F0FFF940F2FF224FF4D0536846ADF80240A3
:20622000ADF80440ADF80640ADF80840ADF80A40ADF80C40ADF80020ADF80E3003F048FFDB
:2062400004B010BDF82C00207F2801DD7F2910DD884205DD401A0F28CCBF0020012070479F
:2062600005DA081A7028D4BF0020012070470020704701F58071081A1028D4BF002001200E
:20628000704700BF80B183698B420DD070B50D460446064E1946306801F03CFD3068294683
:2062A00001F02EFDA56170BD704700BF2001002038B50D4604460021102206F0A7FC2A7DBB
:2062C000294607322046D21006F0C4FB2046BDE83840014904F05CB8A827002070B50D46DD
:2062E00084B080B1064629B3037D0A7D9A4217D068463146FFF7DCFF68466C4603F0AEFE52
:2063000018B103F079FF4DB16C4629462046FFF7CFFF204603F0A2FE0146A8B104B070BD86
:20632000D20806F063FB0028E2D1727D6B7D9A42DED1F3E701466846FFF7BAFF684603F0D3
:206340008DFE0028DDD1E9E72046012203F0E8FEE4E700BF08B504F057FB04F04DFB034B93
:2063600001461868BDE8084001F09ABC20010020024B0349186801F07BBB00BF20010020A1
:206380002D690000024B0146186801F089BC00BF2001002040B1036833B11B6A23B19B6881
:2063A00013B11B6903B118474FF6FF70704700BF08B5044B0146186801F0B6FCBDE80840F5
:2063C00004F040BB2001002008B5044B0146186801F0AAFCBDE8084001F07CBE20010020CA
:2063E000002846D0036A002B42D02DE9F047D3F80890B9F1000F38D01E4E05463068884627
:2064000001F084FB044670B34FF6FF7A002705E02146306801F042FB044608B32368AB422B
:20642000F6D1A3885345F3D02A6AB2F864209A42EED8B8F1000F06D02046FFF7C5FF01F00C
:206440004FFE0028E4D021463846D9F81430984721460746306801F021FB04460028DDD1C1
:206460003846BDE8F0870746FAE74846BDE8F087184670472001002008B5FFF7A5FFBDE858
:20648000084001F02DBE00BFD0B1036863B11A6ABAB1936843B110B50446FFF795FF01F0B1
:2064A0001FFE18B9012010BD18467047236820461B6A9B689B689847003018BF012010BD9B
:2064C00070471046704700BF08B5154A92F855301BB192F85430834201D0002008BDD16880
:2064E000B2F86430888B9842F7D18B7C0C4813F0800F03F1010308BF03F07F038B7492F8FF
:206500005630074A13F0800F03F1010308BF03F07F0382F8563005F0D9F9012008BD00BF72
:20652000FC2C00202DE9F041802A86B00446154690F838601BD88846EEB900F1240731462C
:206540003846102206F062FBEA1D4146D208384606F080FA40233046394684F8385084F80A
:206560003930FFF7BBFE012006B0BDE8F081002006B0BDE8F08106466F4656F8240FF3684D
:206580007168B2680FC730697169102203C73046002106F03BFBEA1D4146D208304606F02C
:2065A00059FA40236846314684F8385084F83930FFF794FE012006B0BDE8F08138B504466B
:2065C000006D0D4618B104F039F90023236545B12846002104F070F92065003018BF0120D2
:2065E00038BD012038BD00BF38B50B4C94F8551009B1002038BD05464FF48A72204606F0E7
:2066000005FB0123204684F8545084F8553005F00BFA204638BD00BFFC2C002038B5154D24
:2066200095F855301BB195F85430834203D0FFF7DBFF054670B105F1100405F1500294426F
:2066400008D295F8253013B906E0637D23B14034A242FAD8002038BD20460021402206F0FA
:20666000D5FA4FF6FF7301222562A38323826275204638BDFC2C002038B5054610460C46C5
:2066800004F0E8F960B1074B014601221868234601F068FA20B10560638A8380637E837121
:2066A00038BD00BF2001002010B504460846FFF751FE18B10368A34218BF002010BD00BFA7
:2066C00010B504460846FFF745FE38B1036823B11B6AA34218BF002010BD184610BD00BFE4
:2066E00038B500210446FFF77BFE0546C8B1FFF76BFE01F0F5FCA0B920460121FFF770FE89
:20670000A0B101462046FFF7BDFD236AC3F88C50206A05F089F9A069FFF73CFEA083A06941
:2067200038BD29462046FFF7ADFDF4E720462946FFF7A8FDE9E700BF2DE9F843C468B0F8F0
:206740006430A28B05469A42A66900F0838008680F46FFF7C5FF002800F0848039688C4245
:2067600006D0AB6820469B6998470446002C6ED0E868A04219D095F85730012B02D9FFF707
:2067800097FCE86894F8393003F0400303F0FF01002B61D190F839305B0600F1878001232D
:2067A000A375EB6800229A75EC60AB682846DB699847A069FFF7EEFDA08316B1238A834207
:2067C00000D920824FF6FF73984233D0226AB2F862304BB1218AB2F864200B44B0FBF2F031
:2067E00093FBF2F3984225DCA069B04262D0FFF7DFFD01462846FFF7E1FE95F85730012B82
:206800000FD91EB13046002104F0B4FE95F8563013F0800F03F1010308BF03F07F0385F82E
:206820005630284605F060F8284605F04FF82046BDE8F883E8680021FFF724FD95F857304B
:20684000012B04D91EB13046002104F093FE0020BDE8F88320468CE7243004F12401FFF7C7
:206860003DFD9CE73B689C4282D105F1100705F150084745EBD204464FF6FF7909E0AB68E0
:2068800020469B693946984704464037B8457FF66DAF7B7D002BF8D0BB69002BF5D09B88BF
:2068A0004B45F2D0002CEAD13C46EEE72430FFF715FD74E72046BDE8F88300BF38B50568F2
:2068C000AB69834201D003B138BD4FF6FF71AA7DA983002AF8D02A6A0446106D28B103F044
:2068E000ADFF2B6A00221A65AB699C42ECD12B6A3BB193F85730012B03D92046002104F0F1
:2069000039FE2846BDE838400021FFF7BBBC00BF10B50446FFF7D2FF034B2146BDE81040E8
