:020000040000FA
:2000000000500020D9050000D1050000B9050000D5050000D5050000D50500000000000070
:20002000000000000000000000000000D5050000D505000000000000D5050000D505000058
:200040006D200000D5050000A9A90000D505000075150000591B0000D5050000D50500005B
:20006000D5050000D1A90000D5050000D5050000D5050000D5050000D5050000D505000010
:20008000D5050000D5050000D5050000D5050000D5050000D5050000D5050000D505000090
:2000A000D5050000D5050000D5050000D5050000D5050000D5050000D5050000D505000070
:2000C000D505000059300000F0B587B000F0C2FA01AD2C46074606AE00F0EEFA24F8020B13
:2000E000B442F9D12C4620880DF06EFC0DF058F827A3D3E900230DF0A7F80DF03FFB24F8DA
:20010000020BA642EFD1002035F8023B1844AE4280B2F9D10DF058FC25490DF061FD0DF041
:20012000FBFD42F2107485B22946224802F0DAFF04FB05F37C1B93FBF4F4A4B221461E480D
:2001400002F0D0FF20460DF019F813A3D3E900230DF0A4F90CF01EFE02460B4610A1D1E91F
:2001600000010DF09BF910A3D3E900230CF0B8FE0DF024FB11490DF07FFC0DF0CDFD84B2BE
:2001800021460F4802F0AEFF204607B0F0BD00BFB90B83E8FFCBF03F306D72D7962A763FF6
:2001A0000000000000CCB04000000000001071400000204180E6000090E600000000C8427B
:2001C000A4E60000AFF300802DE9F04FB1F5801F87B002460B460F465BDA21F000460643DF
:2001E00000F0F5800029C0F2A4810022B24B0DF02BF80F460B46B14902468F426FF0350509
:200200004BDCC7F3130606F5152101F6647101F4801484F07F5181F4401141EA06031046CA
:2002200019460022A64B0CF05BFE4FEA2758B31CA8F2FF38C3F31303A844022B08EB14585B
:2002400082468B464FF000022EDC00230DF064FA002800F0C580B8F1000F00F071814046BF
:200260000CF08CFF80A3D3E9002306460F460CF0EBFF7FA3D3E9002304460D4630463946DB
:200280000CF0E2FF02460B46204629460CF02AFE07E08A4900258F42B3DD104619460CF0FE
:2002A00021FE07B0BDE8F08F4FF080430CF01AFE02460B46504659460DF0F0F8CDE90201C2
:2002C00040460CF05BFFCDE90401DDE9020102460B460CF0B9FF02460B46CDE900010CF025
:2002E000B3FF65A3D3E9002304460D460CF0ACFF63A3D3E900230CF0F5FD22462B460CF079
:20030000A3FF61A3D3E900230CF0ECFD22462B460CF09AFF5EA3D3E900230CF0E3FDDDE983
:2003200000230CF091FF5CA3D3E90023CDE90001204629460CF088FF59A3D3E900230CF04A
:20034000D1FD22462B460CF07FFF57A3D3E900230CF0C8FD22462B460CF076FF0B460246FF
:20036000DDE900010CF0BEFDA6F5C223C6F5D726A3F27A4351361E43002E04460D4657DD8E
:200380000022504B504659460CF05EFF52465B460CF05AFF06460F46B8F1000F40F09680E5
:2003A00022462B460CF09EFDDDE902230CF04CFF02460B46304639460CF092FD02460B46E9
:2003C000504659460CF08CFD07B0BDE8F08F0022002300203C490DF061F807B0BDE8F08F6D
:2003E00052465B46504659460CF02EFF30A3D3E9002304460D46504659460CF025FF02467A
:200400000B4600202F490CF06BFD02460B46204629460CF019FF04460D46B8F1000F40F088
:2004200092805046594622462B460CF059FD38E7B8F1000F00F0AB800BA3D3E90023DDE905
:2004400004010CF001FF22462B4606460F46504659460CF045FDDDE902230CF0F5FE04468A
:200460000D46DDE904017CE00000E0FE422EE63F763C7935EF39EA3D44523EDF12F1C23F29
:20048000DE03CB966446C73F599322942449D23F935555555555E53F9FC678D0099AC33F98
:2004A000AF788E1DC571CC3F04FA97999999D93F555555555555D53F00005043FFFFEF7FA0
:2004C0000000F03F0000E03F000050C336A3D3E90023DDE904010CF0B7FE2246804689468A
:2004E0002B46304639460CF0FDFCDDE902230CF0ABFE2FA3D3E9002304460D46DDE90401F8
:200500000CF0A2FE02460B46204629460CF0EAFC02460B46304639460CF0E2FC52465B464E
:200520000CF0DEFC02460B46404649460CF0D8FCB7E60CF0D5FC002200230CF0AFFFB0E678
:2005400000200021ADE640460CF018FE16A3D3E90023804689460CF077FE06460F4640466A
:20056000494613A3D3E900230CF06EFE02460B46204629460CF0B4FC52465B460CF0B0FCF4
:2005800002460B46304639460CF0AAFC89E602460B46504659460CF0A3FCDDE902230CF06C
:2005A00053FE0BE7AFF300800000E0FE422EE63F763C7935EF39EA3D044B1A68B2F5806F4D
:2005C00003D01B689B0500D4FEE7704728ED00E0FEE700BFFEE700BF08B507F0D3FC104A9B
:2005E000104B9A420DD2D0430F4918440B4620F003000430084453F8041B834242F8041BB2
:20060000F9D10A480A494FF000028842B8BF40F8042BFADB00F0DCF9FFF7CEFF08BD00BFA1
:20062000000000209D060020E4EB0000A00600204C34002010B5039C044802F053FD214649
:20064000BDE81040024802F04DBD00BF2CE6000050E60000134B0121134A196013689B06E6
:20066000FCD510B5114C912023681B689847236891209B6898471128F9D10D4B0521586C86
:2006800007F004FD00200321024607F039FF094B00221A6007F092FF044607F0F1FEA0B2AD
:2006A00010BD00BF0002224314100940A0010010480000101C900C4010B5164B4FF4C0416F
:2006C0001B680A209B699847134B0121134A196013689B06FCD5124C912023681B6898474B
:2006E000236891209B6898471128F9D10D4B0B21586C07F0CBFC00200321024607F000FF51
:20070000094B00221A6007F059FF044607F0B8FEA0B210BDB40100100002224314100940EB
:20072000A0010010480000101C900C404AF6AA2110B50F4C002382B04FF480720D4821800D
:20074000E2816380A380E38023816381A38102F0C9FC204605F0E6FF074B2246009341F2AA
:20076000B35141F6C663054806F0B8F902B010BDD0060020B8E6000035060000F0060020BD
:200780002DE9F0474FF0000A8146884657465546561C0AE0BAF1000F26DB31D00AF1010AD8
:2007A0000237102F06F102061BD016F8014C337803EB0424A4B2002CECD0BAF1000F13DDD3
:2007C0004FF0FF3A09EB0500C5EB08012346124A02F0AEFC02372844102FC5B206F1020634
:2007E000E3D12846BDE8F087002FEBD009EB0500C5EB0801094A02F09BFC2844C5B2E1E798
:2008000009EB0500C5EB0801054A02F091FC2844C5B24FF0010AC3E7E4E60000E0E60000F1
:20082000DCE60000F0B595B00C4605F075FF04AD402632460746002128460DF07BFE04F07C
:200840005FF8314602462846FFF79AFFFFF702FF0646FFF739FC0A4B02979A790949DB7970
:200860008DE841000395204602F08AFC20460DF0ABFE21460246044802F034FC15B0F0BDB1
:20088000AC320020E8E6000004E70000F0B50388A1B0044683B1782B09D12B4803F01AFBAA
:2008A00000283DD178230120238021B0F0BD00230380032021B0F0BD244906AD91F802C073
:2008C00091F803E00A784B780F794E798879C9798DE80050049005910297039628461C49E1
:2008E00002F04EFC9DF826009DF827109DF825309DF824208DE8230016490BA802F040FC9A
:20090000FFF714FF1048802103F0C6FA0BA9124802F0E8FB114B01219B6881209847C1E796
:20092000094803F0C3FA13A80146FFF77BFF0C4802F0D8FB13A80DF047FE13A982B2094BEA
:20094000094806F0BDF8ADE7E0060020AC32002018E700003CE7000054E7000038E9000085
:200960007CE70000D0060020F0060020F0B5002706463C463D4683B0304600F0FDF90195C6
:20098000019B9C4206DD00BF019B01330193019B9C42F8DC304600F0F9F90195019BC4F546
:2009A000C874A34206DA00BF019B01330193019BA342F8DB0137B7F5487F06D0B7F5C87F4B
:2009C000CCBFC7F548743C46D6E703B0F0BD00BF2DE9F041744C86B02368744801215B684D
:2009E0009847236801210A461B687048984707F027FD01F053FB01F0EBFA00F0BBFB01F03A
:200A000023FB00F0AFF96A496A486B4A012303600B6018461368FFF7A9FF07F015FD00F0A4
:200A20001BFD00F047FC03F003FC00F009FE03F02DFB41F2342002F025FA01F059F803F09A
:200A40009BFC5E4800F0B6FE00214BF2AC725C4802F048FB5B4800F0ADFE07F031FE5A4C56
:200A60005A4D10F0040F14BFA046A84607F030FE01280CBF26462E4607F022FE10F0020FF4
:200A800014BF27462F4607F01BFE10F0080F08BF2C4632463B46414600944D4802F022FB89
:200AA00000214C4803F098FB03F09AF803F03CF90220FFF75BFF484802F014FB474B484C25
:200AC000186800F077FE474802F00CFB464B186800F070FE454802F005FB2168444802F0B4
:200AE00001FBE469A04720B1A0470146414802F0F9FA0A2000F056FE002608F0E1FA04A846
:200B000008213D4D3D4F039600F08CFE9DF817309DF8164004AA03CA43EA0424D7F82C8071
:200B20002860696002204AF6CD31C04721460320C04719210120C047082204A97B6B0B2022
:200B40009847BB6A03A90120984703992C4802F0C9FA2C4B21462C481C8002F0C3FA2B4B0D
:200B60006A6829685A60196007F084FE3146284803F032FB0420FFF7F9FE3146254803F077
:200B80002BFB254803F0C4F800F068FD0820FFF7EDFE03F095FA044600F078FD14F0FF0F72
:200BA000F7D101F0DBF8F4E7D801001000400340080009400C4009402C200940C8E7000038
:200BC000ECE7000004E80000C0E70000C4E7000020E800001405002054E80000B0EA0000ED
:200BE0005CEB00005CE8000034EB000064E8000000E700006CE80000AC320020B8E9000025
:200C000090E80000D02B0020A4E80000142C00208C0500203804002024E600002DE9F041F7
:200C200004880646772C30D07E2C27D024B1002303800320BDE8F08103F020FA2F4F304BDE
:200C4000304D3A6818702C60002A45D02346A0462D4C04F8038093688020002198472B68AD
:200C6000013357F823202B60002AF2D1DBB2274A1370772333800120BDE8F081204B1B7833
:200C80008B4219D00120BDE8F081DFF880801D4D98F800201E4F002393423B602B6007DA0A
:200CA000194CE156002919DB013393422B60F7DB3B68002BEFD1DCE7124D134CDFF84C8063
:200CC000134F2B683A68E05C511C00F07F0098F80020E0543960E7E71346C8E70849074A70
:200CE000097852F82320002003F04AFA0028E8D17E2333800120BDE8F08100BF48040020F8
:200D00004834002014070020042C0020E02B00201807002010B40F4B1C7864B10E4A1368A8
:200D2000984214D0002303E052F8041F88420CD00133A342F8D1094A0948135D63F07F0311
:200D400013555DF8044B03F067BA1C46F3E70024F1E700BFE02B002048040020042C002095
:200D60003804002008B500F01BF8024B00221A7008BD00BFE12B0020034A13780343184632
:200D8000137000F031B800BFE12B0020034A137823EA00031846137000F026B8E12B002049
:200DA0000D4B1A6802B1704710B501220B4C1A6023681920DB6B984723681B20DB6B984762
:200DC00023680720DB6B984723680620DB6B9847034B044A1A6010BD1C070020B40100107B
:200DE000A0200240C000000A0D4A0E490E4B08701A60C20744BF4FF0007243F8102C8107B2
:200E000003D50A4B4FF000621A60420702D5074B80221A60030702D5044B40221A60704739
:200E2000C000000AE22B0020A0200240902002400B2838B521D00F2834D012284CD01328EA
:200E400052D00C2800D038BD394C204603F030FA0028F8D02046042103F016FA354B1D68EC
:200E6000C5F30035CDB100F071FAA368C31AE3603148BDE83840FFF74DBF304C204603F014
:200E800017FA0028DFD02046042103F0FDF9294B1D68C5F3C025002D40D100F057FAE5609C
:200EA000A06038BD264C204603F002FA0028CAD02046042103F0E8F91E4B1D68C5F3C035BA
:200EC000002DEAD000F042FAA368C31AE3601D48BDE83840FFF71EBF4FF480414FF080526A
:200EE000BDE8384000F062BE174C204603F0E0F90028A8D02046042103F0C6F90D4B1D6876
:200F0000C5F3C045002DC8D000F020FAA368C31AE3600E48BDE83840FFF7FCBE00F016FAF7
:200F2000A368C31AE3600A48BDE83840FFF7F2BE20070020C0200240FCE8000030070020CD
:200F400040070020BCE8000050070020CCE80000DCE8000028B1012806BF054BD868002020
:200F60007047044B1868C0F3C02080F00100704730070020C020024028B1012806BF054BA0
:200F8000D86800207047044B1868C0F3C03080F00100704740070020C020024008B100203E
:200FA0007047034B1868C0F3804080F001007047C020024028B1012806BF054BD868002078
:200FC0007047044B1868C0F3C04080F00100704750070020C020024028B1012806BF054B00
:200FE000D86800207047044B1868C0F3003080F00100704720070020C020024008B5034B8C
:201000001B685B689847C0F3804008BDB40100108138012801D9002070470B20FFF7EEBF4D
:201020008138012801D9002070470F20FFF7E6BF8138012801D9002070471220FFF7DEBFFB
:201040008138012801D9002070471320FFF7D6BF8138012801D9002070470C20FFF7CEBFFD
:20106000802870B514460AD0812807D1E1B9BDE87040184B10461B685B6B184770BD154D0F
:201080001549012393402A680B60936B204698472B68204600211B68104A9847E0B21049FA
:2010A000BDE8704000F0BABF0A4D0B49012393402A680B60936B204698472B6820461B6814
:2010C0000021064A98472B682046BDE870401B6B184700BFB4010010E02002400040072060
:2010E000310E000008B50B22FFF7BAFF012008BD08B50F22FFF7B4FF012008BD08B51222C4
:20110000FFF7AEFF012008BD08B51322FFF7A8FF012008BD08B50C22FFF7A2FF012008BD69
:2011200010B50A4C1A202368DB6B9847084A23684FF0806111609B6B17209847236817205E
:201140009B694FF4C041BDE810401847B4010010A020024010B5064C042023685B699847C3
:20116000236804205B6B98470128F9D110BD00BFB801001070B507F063F90646FFF7EAFF30
:20118000124B4FF4A0601B68DB699847104B0121104A196013689B07FCD50F4D0F4800F028
:2011A0000BFF2B680D20DB6B0D4C98472B684FF400522260DB6B142098474FF4801323608B
:2011C00006B170BDBDE8704007F03EB9B80100102820086028200840B40100106404002092
:2011E000A02002400120704710B503210820002207F086F9044B00221A6007F0DFF9044668
:2012000007F03EF9204610BD1C900C40802838B51CD0812818D10C46194D1A202B68DB6B97
:2012200098472B6817201B6800214FF4C04298472B6817209B6B98477CB9124B4FF08062DB
:201240001A60114800F09AFA012038BD0C4B1A201B68DB6B9847012038BD0C4B4FF080625A
:201260001A60094800F034FA094B0921586C06F00DFF4FF4FA6000F0ADF8012038BD00BF3A
:20128000B4010010A020024078040020902002404800001010B5064C042023685B69984738
:2012A000236804205B6B98470128F9D110BD00BFB8010010F8B51A4A00200021C2E9000194
:2012C000184B04201B685B6B9847012801D0FFF7E1FF144B00201B68DB699847124B0121EB
:2012E000124A196013689B07FCD5114A11491368096823F4807323F001030F4C13600B6828
:2013000020460E49984740F221200D4D0D490E4B04273126012227602E6008601A60F8BD64
:20132000A0060020B801001028200860282008400C000140C8010010000001400021000452
:201340003C000140080001400400244310B40949094C0B68226808688342FAD1DB010749C8
:2013600003EB52620023C1E900235DF8044BD1E900017047082009400C200940A006002019
:2013800010B50B490B4C0B68226808688342FAD1DB01094903EB52620023C1E9002302F02E
:2013A000A3FD00B910BDBDE8104002F06FBD00BF082009400C200940A006002010B507F0CD
:2013C0003FF8034B1C6808B907F03EF8204610BD0820094038B51A4B05461B6804205B6B68
:2013E0009847012801D0FFF755FF154B154A1B680020DB6914689847134B0121134A04F0F8
:201400000104196013689807FCD5114B11491A460D60196841F4807119601368D905FCD497
:2014200004B138BD064B20461B681B6A9847064B0121064A196013689B07FCD538BD00BF86
:20144000B80100105420084028200860282008400C0001402C0001402DE9F04106F0F0FFE1
:201460001D4E1E4B1E4F32680124002580464FF480314FF480703D601C60186019601368D5
:20148000284623219847336820461B6824219847336802201B6825219847124A124913687C
:2014A00043F4E02313600D6007F0F8F80F4B1049104A1B6800F50070086014603C601B693A
:2014C00014209847B8F1000F01D0BDE8F081BDE8F04106F0B9BF00BF840100100420094055
:2014E000000024430020094008200940B00100101C200940A0022443431E012B10B41BD917
:20150000042802D05DF8044B704700231A4610F004001CBF0E4C216013B10E4B012119607D
:2015200012B10D4B01221A600028EBD00B4B01221A605DF8044B704710F0010302D0084A9A
:201540000123116010F00202E1D0064C2160DEE72020094080022443A0022443C002244305
:20156000182009401C200940014B1868704700BF6007002008B508F083FF184B1860FFF794
:20158000FFFE174B1B686BB9164B1B68E3B9164B1B6833B11549164B00204FF480320860C1
:2015A0001A6008BD124B4FF480721A6007F076F800F205200F4B20F4FF7020F001001860FE
:2015C000084B1B68002BE2D00B49094B0020012208601A6002F044FED9E700BF6007002051
:2015E000A000244380002443C0002443C0022443042009401C20094080022443820702D572
:20160000034B01221A60C30700D4704706F01CBF000C084008B506F013FF074B1A68012AA1
:2016200003BF0649022219600022002814BF104642F0010008BD00BF000C084051E5CC1A62
:2016400003490448044B012208601A60704700BF00000840FFFF0F00000C084038B5FFF79C
:20166000D9FF064C064D0749074A012325600B601360BDE83840FFF7C1BF00BF000008402B
:20168000FFFF0F000C0008400401004303490448044B012208601A60704700BF00000840F7
:2016A000FFFF0F000C00084008B5064802F07AFE30B1054B0121054A196013689B06FCD54C
:2016C00008BD00BF64070020000222431410094070B5054606F0B4FE0B4C294606460B48AA
:2016E00002F062FEFFF7E0FF236868681B689847236868689B6898471128F9D106B170BDE2
:20170000BDE8704006F0A0BEA00100106407002038B5044648B9134802F044FE28B12346DB
:2017200005C813430028FBD19BB90F490F480B680F4D104C0068002223F4C0530B602A60BB
:201740002260C368012098470B4A13689B06FCD438BD054A136823F4C05343F400631360A5
:2017600038BD00BF6407002004100940A001001080012243000222431410094038B505462A
:2017800006F05EFE04462946054802F051FE0020FFF7BEFF04B138BDBDE8384006F054BE0E
:2017A0006407002010B50446C0B200F0B5F9204610BD00BF70B506460024451E04E015F8A4
:2017C000010F00F0A9F9013430460CF0FDFE8442F5D30A2000F0A0F900F0B2F90128FBD0F5
:2017E000204670BD70B50446B0B10078C0B1A9B10025661804E014F8010F38B1B44205D0EC
:2018000000F08AF9631C05F10105F4D100F098F90128FBD0284670BD0546F7E70D46F5E7AD
:201820000546F3E710B40B4B0B4C13F8012FFF2A0ED1A342F9D1094A39B11144013801391B
:201840000B78914200F8013FF9D15DF8044B7047034AF1E7C7FF0100CFFF0100F0120050C8
:20186000C8FF010080280BD0812806D141B9084A084B1160084619607047064B1868704787
:201880000349044A0123032008601846136070470050094068070020813801289ABF024BC7
:2018A00018680020704700BF68070020064B1B6833B1012806D002280ABF044B00231B68E4
:2018C0001846704706F0FABB680700202850094038B50C4D02202B685B6998472B680220A5
:2018E0005B6B984701280446064BF7D11B684FF40070DB699847044B044A1C6013689B0728
:20190000FCD538BDB801001028200860282008402DE9F04340F2F275DFF8DC8083B0FFF7BA
:20192000D7FFD8F800302A4EDB682A4898473368294C5B69152098472368DFF8C090274FB5
:2019400023F4FE63D9F8002023F0020323603D60D36B032098472249D9F800204FF0FF33D9
:20196000082008600093D2F840C01A4802210322E047D8F800301748D3F804C019494FF416
:20198000E1326023E04740F2011240F2013E1649164B142008601968154841F010011960DF
:2019A00003681449002B0CBF134673460B603D60036853B12368326843F050032360136936
:2019C000152003B0BDE8F043184703B0BDE8F083B0010010001000403810004044100040F0
:2019E00090200240006CDC02341000402C1000406C07002030100040D0010010B4010010F2
:201A000008B5064B02201B685B6B9847012803BF034B186800F00100002008BDB801001016
:201A20006C20084038B50446FFF7EAFF18B1264A13681907FCD4032C03D0244B1B6803B170
:201A400038BDFFF7DDFFF0B9214D4FF400702B681B6A9847032C2CD01E4B01211E4A196067
:201A600013689B07FCD5032000F0C2FA022000F0BFFA4FF0FF3000F0BBFABDE838404FF06F
:201A8000FF3000F0B5BA154B15481B68DB689847144B15201B685B69984740F2F270124AAC
:201AA0001249136823F4FE6323F0020313600860CAE72B684FF400709B6A98472B684FF434
:201AC00000701B6B9847C7E7181000406C070020B80100102820086028200840D00100109E
:201AE00000100040B0010010381000404410004010B506F0A5FC0446054800F05DFA054B2F
:201B000000221A6004B110BDBDE8104006F09CBC800400206C07002010B50446FFF770FFB9
:201B200008B9FFF7F5FE044B2146BDE810401B680248DB69184700BFD001001000100040F0
:201B400008B5FFF75DFF18B1024B1868C0F3C00008BD00BF1810004038B5FFF7B9FE40F2B5
:201B6000F2710C4B0C4A1B68116013F0500F10D00A4C0B4D05E02B681B699847094B1B68BF
:201B800023B923680848DB06F5D538BDC0B29847F7E738BD4010004044100040181000403E
:201BA000D00100106C070020001000402DE9F0474FF000094C4682B040230F461646019360
:201BC0000546CDF8009006F03BFC4A4BDFF864E101204FF480714FF48032DFF85C81CEF8C3
:201BE0000090186019601A60D8F8003020461B6801343F219847042CF6D1DFF83C810024DE
:201C0000D8F8003020469B6801343F219847032CF6D1394B1B68FFF739FD384802F0C2FB8F
:201C2000044630B1A368032003B198472468002CF8D16B1C0CD0324BAA0013430021314ABB
:201C40001960136846F000523A4328461B6898472D4EDFF8E8A000243368CAF800409B691C
:201C6000072098476846FFF733FD00F08FFA00F03DFA264826490368326823F0030303608C
:201C80000B68244D23F00F030B609369382098472C600120FFF73CFDDFF8A490DFF8A4E05B
:201CA0001D481E491E4B1F4A4FF00108124F2C60C9F80040CEF8008004600C60CAF8004038
:201CC0001C603B6818491368096823F0030313604B68164803219847154A33682C60C9F8B1
:201CE0000040C2F800809B6B3A68984702B0BDE8F08700BF042009402C20094070070020BD
:201D0000001A4442B4010010B80100100010094008100940401009404001224344012243F2
:201D20000800094024220840D8010010004003401810094000002443840100100C40094056
:201D40002004224388010443034A136823F00403136030BF704700BF10ED00E070B506F078
:201D60006FFB02F003FA18B1BDE8704006F06CBB814802F017FB0225044648B1636823B1F9
:201D80009847A84228BF2846C5B22468002CF5D108F076FB794B04461B68002B40F08B80D0
:201DA00002F0A2F8002840F09280012D014600F0D680022DD8D1002840F0C3802846611E12
:201DC000FFF79AFB6C4802F0EDFA06250446002800F0B080A368022003B198472369246856
:201DE00025EA0305002CF5D1FFF750FC6B0705F0060400F1A280002C40F0A78000F0C6F9E2
:201E00000020FFF785FC5E495E4A0B685E4823F003030B601368016843F00F0313608B69AF
:201E200039209847594A5A4900231360184613600B6006F05BF9062C00F08D80554C564D95
:201E4000564E2B682368326823F00303236053685348032198474C4B1B689B6B98472B689F
:201E600006F07EFA4F4A3368002111604C485B680121984723684C4A012143F003032360D7
:201E800011602B6806F09EFAFFF70EFCFFF778FAFFF7FCFB384802F085FA044628B1E368FC
:201EA00003B198472468002CF9D106F0CDFABDE8704006F0C9BA3D4B1B681B1A022B34D40D
:201EC000A3F28F23002BBFF66BAF01232EE002F013F80646FFF73AFA361A002E7FF744AF35
:201EE000FFF742FB324B00EB46211B1BCB423CD4012085427FF45DAF6FF007031B1BCB427A
:201F000030D404F58034631A31EA230128BF21460220FFF7F1FA274A136823F0040313608A
:201F200030BFBDE8704006F08FBA00239D4228BF1D4635E7FFF7AAFB06241B4B00221A60EF
:201F400059E72846FFF7D8FA3CE70F4B20461B689B69984752E7022006F07AFA6EE704F5AF
:201F60008031D5E704F10801D2E7022DC4D0012D7FF4FAAEC0E700BF70070020800224434B
:201F80000010094008100940B80100104010094020042243242208402C200940D801001090
:201FA00000400340800104430C4009401820094071FDFFFF10ED00E00146014802F0F4B948
:201FC000700700200146014802F032BA7007002010B5054802F0E2F9BDE81040034B032020
:201FE0001B6820211B6818477007002084010010421C0ED010B50446064B4FF4C0421B68AB
:2020000000211B689847044AA3001A430023136010BD7047B4010010001A444238B5044639
:202020000D4606F00DFA01230549064AA3400B6042F8245000B138BDBDE8384006F004BA1B
:20204000E020024074070020064B002103F1800243F8041F9342FBD1034B10201B681B6937
:20206000184700BF70070020B0010010F8B5094B094F1D6800241D60012606FA04F32B42E0
:20208000E0B203D057F8243003B198470134202CF3D1F8BDE02002407407002000B585B0E4
:2020A0000022412302A802920393FFF711FB042006F0CEFB032810D00420032106F0A0FBFD
:2020C000042006F0C5FB0328FAD10090002106484FF040521C2306F097FA02A8FFF74EFBB1
:2020E00005B05DF804FB00BF00A00C4000B583B00022412368468DE80C00FFF7E9FA042092
:2021000006F0A6FB022808D00420022106F078FB042006F09DFB0228FAD16846FFF72EFB02
:2021200003B05DF804FB00BF00B583B00022412368468DE80C00FFF7CBFA012006F088FBE7
:20214000012803D00320012106F05AFB6846FFF715FB03B05DF804FB00B583B000224123CA
:2021600068468DE80C00FFF7B3FA012006F070FB012803D0044B986B05F072FF6846FFF7B3
:20218000FDFA03B05DF804FB4800001010B582B041236846002401930094FFF799FA0320E8
:2021A000214606F02DFB012006F052FB18B1044B986B05F055FF6846FFF7E0FA02B010BDD5
:2021C0004800001008B508F089F930B1044B5B88022B0CBF0120022008BD022008BD00BFB7
:2021E000740A002070B582B008F078F940B9144801A908F07BF901280AD0002002B070BD14
:202200000F4C6388022B08BF0120F0D102B070BD08F036F90A4C00F1400504E008F030F90B
:20222000401B002809DA6088054E0228F6D1A0F10200B0FA80F04009E8E77088F7E700BFB2
:20224000740A002008B50346B32994BF0A46B422024819460CF092F8002008BD0A0B00203C
:2022600030B589B002A8182140F6020208F086FB164B9DF81A201B689DF81B401979144D14
:2022800061F3050211468DF81A205A7902A862F387118DF81A109A7901A9012362F3470433
:2022A0008DF81B4007958DF8163008F01FF9012802D0002009B030BD02A808F069F9A0F171
:2022C0000100B0FA80F0400909B030BDD4040020A804002008B5FFF7C3FF012801D00020A1
:2022E00008BDFFF77FFFC0B208BD00BF70B50E4D0E4E2C68002006E02379022B06D024680E
:202300002B68A3420ED02379032BF5D133780120002BF4D1064801F07FFF24682B6801201E
:20232000A342F0D170BD00BF380A0020E42B00201806002030B583B008F01AFB044608F0D5
:20234000CDF808B903B030BD0A4801A908F0CEF80128F7D108F094F800F1400504E008F016
:202360008FF8401B0028EDDA638803F44063002BF5D0E7E7010001040B2807D00C2801D034
:2023800001207047042A11D002207047082AFBD10029F9D0094B0139A3F1080013F8012D2A
:2023A000834201F8012FF9D1002070470029EBD0034B00201B680B60704700BFA40A00200A
:2023C000400A002010B584B008F088F808B904B010BD42F20343002402A801A902940394C1
:2023E000ADF8083008F082F80028F0D09DF90A30803302D0204604B010BD9DF80C0000F0D9
:202400000C00A0F10400B0FA80F04009DFE700BF30B583B008F062F848B3164C6388022B54
:2024200025D1FFF7CFFF0028FBD101A9124808F05DF808F025F800F1400507E06388022B53
:2024400008D108F01DF8401B002803DA08F046F80028F3D142F202426388934207D042F2D1
:202460000740181AB0FA80F0400903B030BD012003B030BD740A0020010001040B2801D077
:2024800001207047082A01D0022070470029FBD008B50C4B083103F1080011F8012D03F819
:2024A000012F8342F9D108F019F850B1064B5B88022B05D1FFF7ACFFFFF794FE032008BD0B
:2024C000002008BD9B0A0020740A002030B585B008F004F8B8B10D4B5B88022B13D142F2BD
:2024E0000345002402A801A902940394ADF8085007F0FCFF38B19DF80A305B06F2D09DF890
:202500000C0005B030BDFF2005B030BD740A002070B5044607F0E2FFC8B1184B5B88022B7B
:2025200020D105F08DFF054694B9154B154C1E68002116F1804022684FF0000341F1000163
:20254000994208BF90420FD326603DB1012070BD0B4A0C4B12681A60002DF7D105F074FF66
:20256000012070BD002070BD07F08AFF064A07491368086001331360E6E700BF740A0020EC
:2025800004300440040B0020F4070020700A002008B508F04BFA012809D007F09FFF30B16D
:2025A000074B5B88022B02D1FFF70CFF08B1002008BDFFF78BFFFF28F9D0C0F3801008BDCF
:2025C000740A002010B508F031FA012823D0FFF7F9FE04460028FAD1FFF71AFF08F0BCF874
:2025E000FFF7D4FD0D4B0E491A794C80022A08BF1C710C4B1A79022A04BF00221A710A4BAB
:202600001A79022A04BF00221A71084B1A79022A04BF00221A71012010BD00BFF80700203D
:20262000740A00208808002018090020A8090020F8B508F0FBF9012832D0FFF775FD07F017
:202640004DFF48BB1F4A20482049214B92F805C090F805E04F795E790125882465F3830C71
:2026600065F3830E65F3830765F3830682F805C0106080F805E00160C480D480CC804F719D
:202680000B601A60DC805E71FFF766FD08F0FCF8A84207D00020F8BD0E4B5B88022BD1D144
:2026A0000120F8BD0C4B1878003018BF012008F005F9FFF7D5FD0128ECD1BDE8F840FFF7BE
:2026C00091BD00BFF80700208808002018090020A8090020740A0020E42B002070B584B0E6
:2026E000072800F2B180DFE800F01F622730335D6D04564C217707F0F1FE18B36388022BF5
:2027000020D1FFF785FE01280CBF0024032408F0C9F8012800F08380FFF764FD01280CBFF0
:202720002046032004B070BD012900F08280002979D0022004B070BD444C618607F0CEFE64
:202740000028DBD1002004B070BD404C2186D2E731F00702EDD13D4C3D48237EC1F3400528
:2027600061F30003DBB243F00203067865F38203657EC1F3800103F0870362F3C71362F3C9
:20278000C7158E42657623760170B4D1314B228B184603A95A8007F0A9FE00280CBF032062
:2027A0000020BFE731F00103C3D1C8B2BAE7A1F10B030F2BBDD8254CC9B2A37B8B42C1D0A8
:2027C000A17398E701F115031A2BB2D8224D0C2455F83430204899424FEAC40230DD14F1E9
:2027E000FF34F5D207F07AFE00289BD04FF0000205EBC40423796079A17903F03F0360F3CD
:20280000871361F34702102403A802A98DF80E308DF80F20ADF80C4007F068FE92E7002099
:20282000FFF776FE78E70191FFF7CCFE0199084678E7FFF7FDFE012814BF0320002071E7AE
:20284000064B02441A60CDE701206BE7740A0020E42B0020640A002048E90000D4040020BC
:2028600081B1F0B50C4685B0102800F29E80DFE800F089847F7A6360965A28221D9C9C198A
:2028800015100B000220704705230B60002005B0F0BD6FF014030B600020F8E71A230B6092
:2028A0000020F4E70B230B600020F0E7494B00201B780B60EBE7484B00201B785BB20B604B
:2028C000E5E707F00BFE002871D0444B5B88022B08BF00276BD14FF000030222002562F31A
:2028E0008303039502958DF80C3042F2034609E002A801A902950395ADF8086007F0F6FD82
:2029000000285AD09DF80C3003F00C03082BEFD0002F5BD19DF90A3013F1800F23600CBF94
:2029200003200020B3E72D4B002093F91C300B60ADE700200860AAE70023284A0B60137EA1
:2029400003F001030B60127E520744BF43F002030B60234B1878002899D00B68002043F031
:2029600004030B6093E71D4B00201B8E0B608EE71A4B00205B8E0B6089E7184B00209B7B78
:202980000B6084E707F0AAFD30B1144B5888A0F10200B0FA80F040092060002077E7114B53
:2029A00000201B681B680B6071E701206FE7FFF73FFE012805D107468DE780238DF80A3062
:2029C00027B96FF07F032360032060E7FFF7FAFDA0E700BFE52B0020E32B0020740A00201A
:2029E000E42B0020D4040020F0B589B0074607F075FD00284ED0344B5B88022B08BF00265A
:202A000048D107F03DFD6FF01F052D1A03E007F037FDC54245D5FFF7D5FC01280446F6D073
:202A200000283ED102A8182142F6014207F0A6FF264D274BFFB28DF81770297806930494F1
:202A40009DF81430003118BF012123F00F0301208DF8143007F06CFF02A801A907F046FD74
:202A600028B3287800E040B3BDF80A3003F44063002BF8D0BDF80A40A4B2B4F5105418BF53
:202A80000124003018BF012007F066FFC6B9204609B0F0BDFFF7CCFD012806D0012009B0AA
:202AA000F0BD3EB9022009B0F0BD0646A9E728780124E6E7FFF786FDF4E7FFF745F9D0E73D
:202AC000FFF780FD2046EAE7740A0020E42B00200A0B002010B50C46B32C014694BF224652
:202AE000B42204480BF04AFC2046BDE81040FFF77BBF00BF0A0B002010B507F097FF012879
:202B000017D007F0EBFCB0B9FFF792FD012804460DD1FFF7DBFCFF2805D000F0030010F1F4
:202B2000FF3418BF0124FFF74DFD204610BDFFF749FD012010BD094B5B88022BE4D1FFF7BA
:202B400041FC0028FBD1FFF7C1FCFF28F1D000F0030010F1FF3018BF012010BD740A002023
:202B60002DE9F0435B4E83B080460F46356807F087FC594C241A03E007F082FCC44208D5E0
:202B80002B79022BF8D0032B06D0002003B0BDE8F0832B79032BF8D135684E4A2B7A032B0A
:202BA00007D995F808905FFA89F9A9F10804BC4207DD2B68002013602871287203B0BDE8FC
:202BC000F08305F10901224640460BF0D7FB09F10303EB5C414F09F104023B7009F105093D
:202BE000AB5C55F809003E4D03F03F0301902B70DDF8049007F072FC002858D0394B5B8807
:202C0000022B08BF4FF0000851D107F067FC48B1344B5B88022B05D10020FFF779FCB8F16B
:202C2000000F54D1304BB9F1404FD3F800800BD907F026FC2D4B1B68C3F17E4303F5720387
:202C4000C34248BF08F1FF384146DFF8ACE06FF4BF72DEF800E012EB09024FF0FF334FF04C
:202C6000000043F10003B2EB0E0263EBEE7312EB000843EB0109DFF884E04FEA092143F6AD
:202C80000952002341EA18614FEA0820CEE900890BF062F8164B174A1B78106063B13368A8
:202CA00000221968204631601A721A716EE7FFF7BFFC4FF00108A8E73978042049B289B27B
:202CC00006F0D4F92978032006F0D0F9E7E7FFF779FCA7E76C0A0020FAFEFFFFE32B00202D
:202CE000E52B0020740A0020F4070020700A0020E42B0020400A0020442A0020A80600205C
:202D000010B507F0EBFB80B1124B5B88022B0CD10020FFF7FDFB04469CB9BDE810400E489E
:202D200080210E4A002300F095BFFFF781FC0128F3D10020FFF7ECFB0446FFF743FC002C2B
:202D4000EBD0BDE8104004484FF48731034A002300F080BF740A0020440A0020012D0000A3
:202D60002DE9F84F364F3748FFF726F907F06AFD3846002190220BF0DDFB0021902232480E
:202D80000BF0D8FB002190223048314C0BF0D2FB002190222F480BF0CDFB2F4E2F4B0025AC
:202DA00029462046802242F6010B1F60376075600BF0C0FB42F202000722022363762276C2
:202DC000274BB4F81880274FFF2101224FF06F0C4FF0A60E4FF0190A4FF0B9092661A4F851
:202DE00000B084F80EA084F80F90676184F81BC084F81CE0A176627384F83720A3F802806B
:202E000019711880FFF714FC0128044603D02C462046BDE8F88F144807F0C0FD2046FFF7D4
:202E200077FB124A2B4612484FF4873100F012FF2946104801F0D0F92046BDE8F88F00BF2B
:202E4000F8070020940400208808002018090020740A0020A8090020380A00206C0A002043
:202E6000640A0020F40A0020B0E90000012D0000440A00201806002008B500F08BF880B2D1
:202E800008BD00BF00F010B938B50C4D04202B685B6998472B6804205B6B98470128044686
:202EA000064BF7D11B6840F20140DB699847044B044A1C6013689B07FCD538BDB80100101B
:202EC0002820086028200840034B1B68002B14BF01200220704700BFC00B0020F8B5038807
:202EE0000446002B2ED0B3F5847F05D1184B1B788B4205D00120F8BD002303800320F8BDF2
:202F0000144D2B6873B1144B144A1B6812685B680220174698470026301847F100012B6884
:202F200098472E600E4B40F201401B689B6A98470C4B01210C4A196013689B07FCD50B4868
:202F4000FFF740F84FF4847323800120F8BD00BF9A060020C00B0020CC0100100480024083
:202F6000B80100102820086028200840D804002008B5064B04201B685B6B9847012803BF07
:202F8000034B1868C0F34000002008BDB80100103C20084070B5274B1B689BB1264C002323
:202FA000224612F8011B29B90133042BF9D10020014670BD214A002502EBC302E55492E8EB
:202FC000030070BDFFF7D4FF00282FD01C4A1D4B1268134073B91C4A012113461160186838
:202FE0000028FCD102464FF4807105F01DF8174B01221A6005F024FA0646114A1368DB0740
:20300000FCD5134B134A1B6814685B680220984723460022141843F1000516B120462946D5
:2030200070BD05F011FA2046294670BDFFF72CFFCCE700BFC00B0020C40B0020B00600201E
:203040000880024001000080F09F0240A8025042CC0100100480024038B50E4D00240E4AB1
:203060002C6013680D4923F00103096813604B6931209847204622464FF4807104F0D4FF4B
:203080000122074B2A6019782246BDE83840054801F076B8A80250420C800240B0010010E4
:2030A0009A060020EC04002010B5074C2378802B00D010BD00F0E2FF207000210348BDE8D3
:2030C000104001F089B800BF9A060020EC0400200AB90020704708B508461146FEF782FB71
:2030E000002008BD0FB400B583B004AB53F8041B04481A46019300F07BF803B05DF804EB8D
:2031000004B07047FC04002038B51546044643680068934298BF03F1FF352A460BF02EF999
:2031200094E80C002A445D1B84E82400002038BD0CB430B587B00AAB53F8044B094D029069
:2031400003911A46214604A802AC01930495059400F04EF8029B00221A7007B0BDE83040A9
:2031600002B070470931000038B50446154600680BF004F9236800201D44256038BD00BF75
:203180000EB430B586B009AB53F8041B084D01901A4601AC04A803930495059400F028F8BD
:2031A000019B00221A7006B0BDE8304003B0704769310000102970B50C46054602D80AE039
:2031C000102C0BD92B686868084910229847103C0028F5D070BD08460029FBD022462B6867
:2031E00068680249BDE87040184700BF54EA00002DE9F04F82460F468FB007924FF0000B6F
:203200003B78002B00F0E880252B08BF3E461BD03C4602E0252B04D014466378621C002B8C
:20322000F8D1974216460CD0D51B39462A46DAF80030DAF804009847002840F079826378F0
:20324000AB44002B00F0C88073780136002B00F0C38019460025A1F12003102B1BD8DFE86E
:2032600003F0171A1A141A1A1A1A1A1A1A111A0E1A1A090045F0100516F8011FEBE745F051
:203280000105F9E745F00605F6E745F00805F3E745F00205F0E7A1F13102082A0B46374637
:2032A00000F2DC80A1F13002092A4FF000040AD804EB840403EB440417F8013F303CA3F1A8
:2032C0003002092AF4D92E2B00F0D1804FF0FF366C2B00F03D81682B00F04281782B00F28E
:2032E0008180DFE813F079007F007F007F007F007F007F007F007F007F007F007F007F0096
:203300007F007F007F007F007F007F007F007F007F007F007F007F007F007F007F007F00BD
:203320007F007F007F007F007F007F007F007F00BE027F007F007F007F007F007F007F005C
:203340007F007F007F007F007F007F007F007F007F007F007F007F007F007F007F007F007D
:203360007F007F007F007F00BB027F007F007F00B802B502B2027F007F007F007F007F0077
:203380007F007F007F007F007F007F007F007F007F007F007F00AF027F007F007F007F000B
:2033A0007F007F007F007F00AC027F00A902A602A302A0029D027F00A6027F007F007F0007
:2033C0007F009A0297027D007F007F0091027F008E027F007F00940258460FB0BDE8F08F07
:2033E00045F4407505F4E063B3F5806F07F1010700F0CE804FD9B3F5C06F00F0A581B3F511
:20340000E06F00F09A81B3F5A06F7FF4F9AE079B012C1A6803F1040307938CBF04F1FF3428
:203420000024EB078DF8202000F1D08150462146FFF7C0FE002840F07B81DAF80030DAF896
:20344000040008A901229847002840F071810BF1010C0CEB040505EB040BD1E62A2900F069
:203460008C800B462E2B4FF000047FF42FAF7B78791CA3F13002092A7AD80F46002606EBC3
:20348000860603EB460617F8013F303EA3F13002092AF4D91CE7B3F5807F00F0B080B3F571
:2034A000407F7FF4ADAE079BC34A1968C34815F4804F03F1040308BF9046079318BF80469D
:2034C0000A460023002900F094810DF133094846110941EA03714FEA131E02F00F067346A0
:2034E0000A4618F8061000F8011D52EA0301EFD1B9EB0006034600F07E810336B4424FF0F0
:2035000030024FF078014FF0230300F8022C8CBFA41B0024EA0700F8011C00F8033CA0F13A
:20352000030800F1A18150462146FFF743FE002840F0FE804146DAF80030DAF8040032468C
:203540009847002840F0F4805E4406EB040B57E67B786C2B00F00481013745F06005BDE66D
:203560007B78682B00F09381013745F04005B5E62A2B00F091810F46A8E6079B771C1C6881
:203580000433002C0793B8BF45F0010573789AE6079BD3F8009004330793B9F1000F00F09A
:2035A0008F8299F80030002B00F0B2824B4613F8012F002AFBD1C9EB0308002E02DBB04569
:2035C00028BFB04644458CBFC8EB04040024E90700F1E08050462146FFF7ECFD002840F0E6
:2035E000A7804946DAF80030DAF8040042469847002840F09D80D84408EB040B00E6002E2F
:20360000ABBF25F0100501230196019315F40053049305F0E00300F0A880402B00F07F8288
:2036200000F24181002B00F02D82202B40F05A82079B1A1D079293F90020D317002A73F11F
:203640000001C0F22A82CDE902230023059305F4C053B3F5805F00F09281B3F5C05F00F028
:20366000BF81B3F5006F00F067810DF136064FF00008019B41F20802984541F6080303EAB5
:20368000050380F0338101999342C8EB0101019100F0468141F6080201999342414400F06C
:2036A00031814FF000094A46049B73B1059B002B40F0838105F00603022B00F01B8240487E
:2036C000062B04BF02464FF0010909EB01039C428CBFE41A002415F00103049306D1E806BD
:2036E00040F1F681019B2344049C0193B9F1000F07D01146DAF80030DAF804004A469847BD
:20370000B0B9019B08EB0B05102B40F291819B4603E0BBF1100F40F28E81DAF80030DAF87E
:203720000400284910229847ABF1100B0028F0D04FF0FF300FB0BDE8F08F079B1A680433B8
:20374000C2F800B007935BE5DAF80030DAF804001D49012298470028EAD10BF1010B4FE5C6
:20376000BB7845F080050237B8E5402B00F0C68100F2A980002B00F09881202B40F0218178
:20378000079B049A05921A1D07921A780023CDE902235CE74946DAF80030DAF804004246C0
:2037A00098470028C4D150462146D844FFF702FD00283FF421AFBBE720EA00000CEA000092
:2037C00044EA000064EA000050EA0000DAF80030DAF8040008A9012298470028A8D1504671
:2037E00021460BF10105FFF7E5FC00283FF433AE9EE70DF13303302203F8012C581E04267A
:203800007CE645F41065EDE545F48065EAE545F4C855E7E545F48855E4E545F4E065E1E594
:2038200045F48135DEE545F40075DBE545F40245D8E545F42455D5E545F4A065D2E545F491
:20384000C135CFE545F4B245CCE545F4A135C9E545F48445C6E545F44245C3E545F4E135BC
:20386000C0E545F4C065BDE54146DAF80030DAF804003246984700287FF45AAF504621464C
:203880005E44FFF797FC00283FF45FAE50E7BB7845F02005023721E5079ABB78111D0791F8
:2038A0001668023714E5602B00F0EC80802B40F01981079B073323F0070303F1080207926C
:2038C000D3E90023BAE6602B00F0EF80802B78D1049B0593079B073323F0070303F108025D
:2038E0000792D3E90023CDE90223B0E6934200F0EC800022019241F60802019993424144C4
:203900007FF4CFAEDDE9022313433FF4CAAE874B15F4804F864A4FF0020908BF1A46C3E637
:203920000B46002908BF01230193019B4FF000094A4603EB0801B7E6DDE9028942464B461C
:20394000134300F0E7800DF136031E460693404649460A2200230AF0FFF9303240464946B9
:2039600006F8012D00230A220AF0F6F98046894658EA0903EBD1069BC6EB030879E6DDE9C2
:203980000223134300F0C6800DF1360306939E46DDE90223D00840EA4370DE0802F0070142
:2039A0003346024630310EF8011D52EA0301F1D1069B7646CEEB03085BE64FF001095D4A6D
:2039C00083E605F4C053002200200021B3F5805F0592CDE90201D2D0B3F5C05F40F085809A
:2039E000DDE90201544A554B15F4804F14BF9046984602460B46134300F08C800DF136033F
:203A000006931E4602460B46110941EA03714FEA131E02F00F0073460A4618F8001006F8C5
:203A2000011D52EA0301EFD1069BC6EB030820E6019B9B464BB15A46DAF80030DAF8040014
:203A40003F49984700287FF473AE31464246DAF80030DAF804004D44984700287FF468AE4B
:203A6000019B2B441E46049B002B3FF46EAD50462146FFF79FFB00287FF45AAE06EB040B8F
:203A8000FFF7BEBB079B1A6804330793002A4FEAE27373F10001BFF6D6AD524263EB430345
:203AA000CDE9022301230593D1E5049A079B05921A680021104604330793CDE90201C6E5B4
:203AC000DFF884904FF0060877E5012301932CE7504621460292FFF76DFB029A00283FF4A1
:203AE00005AE25E600220023ADE5DDF814800DF13606BEE5134A4FF00109E6E5079B049A3A
:203B000005921A1D07921A880023CDE902239EE5984652E54FF000080DF13606A9E5079B55
:203B20001A1D0792B3F90020D31787E538EA000034EA00003CEA00000CEA000020EA00002D
:203B400064EA000040EA000048EA0000F0B5038883B005465BB14A2B04D188291BD00120FA
:203B600003B0F0BD00230380032003B0F0BD194800F018FC044630B1201DA16800F08CF971
:203B80002468002CF8D1144B01221A704A2301202B8003B0F0BD0F48019200F003FC0446DC
:203BA0000028F3D0019A031D9A4205D02468231D002CEBD09A42F9D10648214600F038FC7C
:203BC000064E6269A369376832600BB1E06998473760DBE7C80B0020E62B0020D40B002029
:203BE00010B5064B002406481C7000F0D7FB2146BDE81040034800F0EFBA00BFE62B0020BF
:203C0000C80B00200405002070B504460D48049D0078A261E361656130B9A1600A482146FB
:203C2000BDE8704000F0C0BB084D094B2E68201D2B6000F031F92E602146BDE8704002480F
:203C400000F0B2BBE62B0020C80B0020D40B00200405002010B5044C82B024680094FFF75E
:203C6000D3FF02B010BD00BFD40B002070B5094B04461B783BB1084D084B2E6804302B60F6
:203C800000F014F92E602146BDE87040044800F08BBB00BFE62B0020D40B00200405002043
:203CA000C80B002070B5094B04461B783BB1084D084B2E6804302B6000F002F92E602146F2
:203CC000BDE87040044800F06FBB00BFE62B0020D40B002004050020C80B002010B50A4B04
:203CE00004461B783BB9C36003612146BDE81040064800F09DBB043000F008F92146BDE849
:203D00001040024800F094BBE62B0020C80B002010B50446006830B1002100F05DFA54F89A
:203D2000040F0028F8D110BD704700BF10B50E4C2368B3B1FDF70AFB22685168136892687D
:203D40001944091A4AB192E8180023441B1A9268994228BF1946002AF5D1044B084418609C
:203D600010BD024A136010BDCC0B0020D00B00202DE9F041038805467BB1592B08D18729A2
:203D800012D0822920D059232B800120BDE8F081002303800320BDE8F081254A0120136066
:203DA00059232B80BDE8F081214F3B68002BEAD0D9688A4203D024E0D9688A4220D19B68E9
:203DC000002BF9D13B60DEE7194F4FF000083C68002CD8D0002604E0A3682646002BD2D019
:203DE0001C46204600F064FA0028F5D0E0688821224600F0C5F978B10E4800F00DFAEBE771
:203E00003B6099680029BED0C86882420BBF89680B4699608968F5E7E060A3682EB1B3604C
:203E2000C4F80880FFF782FFD1E73B60F8E700BFCC0B00201405002010B50446104800F04F
:203E4000EBF91049E3680A684BB142B194420FD0134601E09C420BD09B68002BFAD10A4B83
:203E6000A2601B680C60E360BDE81040FFF75EBF054B1B68E360BDE81040FFF757BF00BF30
:203E800014050020CC0B0020D40B0020014800F0C3B900BF1405002010B5044600F0F4F95A
:203EA0002046BDE81040FFF7C7BF00BF10B5044600F0F2F92046BDE81040FFF7BDBF00BFF6
:203EC00010B5044600F0EEF92046BDE81040FFF7B3BF00BFC068B0FA80F04009704700BF79
:203EE00005C81044704700BF024B1868003018BF01207047CC0B0020024B186808B1024BB5
:203F000018687047CC0B0020D00B002010B5114B04461A68904218D05AB19368834208BF3F
:203F200013460AD02BB19A68A24206D01346002BF9D10023A360E36010BDA2689A60FFF738
:203F4000F5FE0023A360E36010BD82681A60FFF7EDFEEEE7CC0B00202DE9F843DFF8A480DB
:203F6000274DD8F800702E68874247D077B33B4601E0002B3BD01B689842FAD133B3837B49
:203F80008946044623B3002383736FB1BC424FF0870106D0BB7BDB0703D53846224600F098
:203FA00033F83F68002FF1D1A3683BB14C4505D02C6004F10C00832100229847D8F80000DF
:203FC000844208D12368C8F800302E60BDE8F88338468442F6D00028F7D00368A34208D0F8
:203FE000002BF2D01A68A24204D01346F8E7BDE8F883034622681A602E60E7E73B46BDE774
:20400000D40B0020D80B002070B586687EB104460A4802230460A37304F10C000D46B047D6
:204020000238012804D9832D02D00123A37370BD20462146BDE87040FFF78EBFD40B0020F3
:2040400070B50C4A0C4B146800251D7084B1012601E0246864B1E37B002BFAD0A673E573BE
:20406000204682210022FFF7CFFF2468002CF2D170BD00BFD80B0020E92B0020024B1878D6
:20408000421C1A70704700BFEA2B002070B407480749084A0023084D084C8A2603700B601E
:2040A00013602E70237070BC704700BFE82B0020D80B0020D40B0020EA2B0020E72B00201E
:2040C0002DE9F041244D2B780BB1FFF7B9FF234E3378D3B1DFF890E0214F9EF80020013BD2
:2040E00002EB420189007C180132A068DBB202F01F0233708EF800207F5CD4F8048098B1DB
:20410000812F06D0827BD20705D428781844BDE8F0810123837339464246FFF775FF337822
:2041200028781844BDE8F0810E4A146834B9ECE7A37BD9070AD42468002CF0D02B78002BB7
:20414000F6D0FFF77DFFA37BD907F4D5204639464246FFF759FFEEE7E92B0020E82B002069
:20416000DC0B0020D80B0020E72B0020024A034B10781B7818447047E82B0020E92B0020D4
:20418000F0B40C4D2C78202C11D00B4B0B4E1B78671C234403F01F0303EB43039B00F41835
:2041A000A06062602F70F1540020F0BC70470120F0BC7047E82B0020E72B0020DC0B0020E6
:2041C00038B5837B034CDB07256801D5FFF71CFF256038BDD40B002070B404460D4D28687E
:2041E000A04206D038B1034600E023B11B689C42FBD170BC7047002CFBD001260023206050
:20420000A673A3810A4620462C60812170BCFFF7D7BF00BFD80B002038B1837B013B012BB4
:2042200003D8024A01231370C3737047E92B002006F020B938B5094C049D226822B180E818
:204240002A002060002038BD024680E82A000846226006F011F9002038BD00BF5C0D002098
:2042600010B5084C206858B100224368816822609847236823B1BDE81040186806F0FCB8FF
:2042800010BD00BF5C0D002010B541600446FDF75DF8206010BD00BF90E80C0013440360C6
:2042A000704700BF10B50446FDF750F8206010BD10B50446FDF74AF823686268C3F101039E
:2042C000184482422CBF0020012010BDF8B504880546672C0CD0792C1BD01CB100230380CF
:2042E0000320F8BDFFF7CAFE1E4A1F4B10701C601D4C264604E00A2813D023687E2B2BDD50
:204300001A4800F0C1F8431CF5D167232B800120F8BD852901D00120F8BD134C0023236008
:20432000E6E7114C124F23680E49002603F1010E3A4609783046FE54C4F800E0FFF720FF6D
:204340000C4B324618688521FFF71AFF0028E5D179232B800120F8BD05495A1CC8543260EC
:20436000CEE700BF49340020E00D0020640E0020600D0020D40B002008B505480549802207
:2043800000F07AF8BDE8084003480021FFF724BF640E0020E40D0020240500200023036017
:2043A000704700BF00687047026842B1914203D11BE099420ED01A461368002BF9D10023BD
:2043C0000B6002680AB90EE01A461368002BFBD1116070470B68136000230B6000230B605B
:2043E0000268002AF1D1016070470B680360F3E710B404684CB1A14217D0224602E0994283
:2044000008D01A461368002BF9D10C6001605DF8044B70470C460B68136000232360046882
:204420000C6001605DF8044B70470B680360F4E7026842B18A4203D10BE0994204D01A46AC
:204440001368002BF9D170471968116000221A607047134612680260F8E700BF03682BB1D6
:2044600000201B680130002BFBD170471846704700B10068704700BF0023013A01600271E4
:2044800043718371704700BF0346807959791A79091A114208D010B4411C1C680A40205C9E
:2044A0009A715DF8044B70474FF0FF30704700BF2DE9F84305460F480F469046FFF772FF2D
:2044C0000446A8B1DFF834900BE0D9F800302846394642466668B0472046FFF7C9FF04460A
:2044E00030B1012DF1D80448FFF7B8FF0346EEE7BDE8F8831C130020B40E0020AC0E0020A2
:2045000008B50B4806F0B0FA0A48FFF747FF0A4B0A49186804F0E2FA094806F0A5FA09482E
:20452000FFF73CFFBDE808400748FFF737BF00BF54050020580F002050050020F9460000AF
:2045400034050020B40E00201C13002048B108B5044A4168106804F01DFCBDE8084000F0C2
:204560006FBE7047500500200148FFF71BBF00BF580F002008B1FFF77BBF704708B500F036
:2045800067FE38B1044B0146186804F0BFFB003018BF012008BD00BF500500202DE9F041A1
:2045A00007461B48FFF7FEFE044650B30026B04694F8245004F10801B5424FEAD50207D311
:2045C000384609F0A7FE18B9802D1FD02E46A0462046FFF74DFF04460028E9D1B8F1000F6C
:2045E0000FD00B48FFF7DEFE804507D008484146FFF71EFF06484146FFF7FAFE4046BDE843
:20460000F0814FF000084046BDE8F081A046E8E7580F0020002840D04368002B3DD070B5CA
:20462000054622482946FFF703FF6B685868FFF7B9FE044628B929E02046FFF719FF04462C
:2046400020B36368AB42F7D105F108066B6821465868FFF7EDFE6B685868FFF7A3FEE8B165
:204660002946134806F030FA2146124806F02CFA114A28461368013B1360FFF767FF3146AD
:20468000BDE8704002460320FFF712BF05F10806304602F047F80024D8E77047074A6B682A
:2046A0001068596804F04CFBDAE700BF580F00205405002060050020AC0E00205005002032
:2046C000B0B14368A3B110B504461846FFF76AFE38B14068FFF79EFF6068FFF763FE002844
:2046E000F7D1044B2146BDE81040186804F028BB704700BF50050020FFF7E2BF2DE9F84F11
:20470000064610469046894600F0A2FD0746002866D03046FFF742FF044660B1FFF716FF05
:2047200030B101461022404609F0F4FD002854D02046FFF76FFFDFF8E8A0DAF80030142BF9
:204740004ED0DFF8E0B03946DBF8000004F0DEFA0546002847D02F4806F098F904460028BC
:204760003ED02D482146FFF743FE2C4806F08EF90746002847D0446001466868FFF714FED8
:20478000DAF80030656029460133DBF80000CAF8003004F0EBFA30687168B268F368002506
:2047A00004F108070FC784F824903146424625766576A576E57625776577A577E57784F898
:2047C000205084F8215084F8225084F823500220FFF76EFE2046BDE8F88F2046BDE8F88FF7
:2047E0000020BDE8F88F03463946DBF80000042204F0EEF905460028F2D0002380E82800E9
:20480000FFF7CCFDA7E72146024806F05DF93846BDE8F88F54050020580F0020600500201F
:20482000AC0E00205005002010B504460E48FFF7B9FD40B1A04202D106E0844204D0FFF7FC
:2048400017FE0028F9D110BD21460748FFF7F0FD2146064806F038F9211D0A46BDE810408C
:204860000120FFF725BE00BFB40E00203405002038B505460A48FFF795FD044628B90DE01A
:204880002046FFF7F5FD044640B1201D2946102209F040FD0028F3D1204638BD002038BD1F
:2048A000B40E0020F8B50F460546FFF7E1FF0646B8B128686968AA68EB68341D0FC447B954
:2048C00001233377002029462A46FFF7F1FD3046F8BD394606F1140006F0AEF80023337709
:2048E000F0E7054806F0D2F806460028EFD003483146FFF77DFDDCE734050020B40E002071
:2049000038B50B48FFF74EFD044670B1251D284600F078FC08B1437C2BB92046FFF7A8FD3A
:2049200004460028F2D1284638BD0546FBE700BFB40E002010B50D48FFF734FD044664B171
:20494000237F04F1140013B906F07EF830B92046FFF78EFD0446002CF2D110BD2046FFF742
:2049600063FF0248FFF71EFD0446E8E7B40E0020013A0A44914230B414D20C46257863788F
:20498000023403EB05239BB2184480B2834284BF013080B2A242F1D8CB43134423F001035C
:2049A00002331944914201D030BC70470B7830BC1B02184480B2834284BF013080B27047E2
:2049C00030B5134B134D1C782B796A79C4EB0323134483B09BB2ADF80630BDF8063005F1B1
:2049E00008011844202280B2FFF7C2FFBDF8062004F12801294492B2FFF7BAFF18B94FF6B8
:204A0000FF7003B030BD40BA80B203B030BD00BFEB2B00201C2C0020022318462DE9F04194
:204A20002C4D2D4E2A782D4F2832B1184978C90001F1070E704549DC8118745CDFF898807E
:204A4000012C31440AD01DD3632C0DD13B70234C02F03AF9D0B90120BDE8F0814C78023484
:204A60000319DBB21846E5E704F0C004802C1AD0C02C25D0402C1FD04B7802330344DBB20D
:204A80001846D7E7431CDBB21846D3E72B78227828331344984498F80130002013440233BE
:204AA0002370BDE8F0813B7002440221042006F021F90220BDE8F0813B700120BDE8F081EB
:204AC00098F818103B70FF29EED1C4E73B700020BDE8F081EB2B00201C2C0020ED2B00202A
:204AE0003A20FFF76DBF00BF08B506F03BFC06F0EBF900F025FD064A064B4FF4806111804F
:204B000003F5A07100221A8220338B42FBD108BDD22B0020243000202DE9F041134E347838
:204B200014B3134F04F127033D88AB4204DB00233B803370BDE8F081DFF83880A5F12802B6
:204B4000121B04F128012C1B4144A4B208F1280009F08AFCA4F12803191200223C8088F8FF
:204B6000053088F804103270BDE8F081EB2B00200C2C00201C2C0020F0B50746DFF888C0AD
:204B80001E4EBCF800500135ADB2B5F5FA4F15D26CBAA4B21A4A96461346188A2033A0424A
:204BA000F1D0B342F9D1ACF800500023108A203240B101330A2BF9D10020F0BD4FF4805569
:204BC0001024E7E75E010EEB06052C8269820C4B67B12C4638687968BA68FB680FC4094BC9
:204BE000B6441B7928468EF81430F0BD05F108029F516F6042F8047B1760F0E764310020C7
:204C000024300020DC320020D22B00202DE9F04F042883B020D0954BDFF87482944F052874
:204C2000C8F800303B6022D013F83C2CA3F13C0402F0F002602A30D08E4D8F4EDFF858A2B9
:204C4000DFF85C9200232B808AF8003089F80030337003B0BDE8F08F884C864D864E2388BE
:204C6000002B44D1DFF830A2DFF83492EAE7844A1268128A002ADFD08248804C7D4D7E4EF4
:204C800000220C3B0821C8F800303B60026022802A80317001F0A8FEE1E72279754D617912
:204CA00012022888561886425DDC207A28310A44FF282A8057D0744EDFF8DCA1DFF8E0912A
:204CC000A1790022363B33608AF8002089F8002000295ED1012389F80030FFF79DFE01286A
:204CE00000F0AA8049D3022853D1634E36E0644A664C126803F1080149BA002092F814C011
:204D0000A185E085118A303321859BB2508AA3F128014FEA212E11272B8084F807C084F856
:204D200004E060856171A77104F118050FCA85E80F00294604F1080006F07CFA544B04F1ED
:204D40003C0238461A60FFF73BFEC04380B280B1E085002360222270637063800023337070
:204D600003B0BDE8F08F444EDFF82CA1DFF8309168E74FF6FF73E385EBE79AF8003003F198
:204D8000280222445178083303EBC10332608AF80030404806F02EF9002800F0358133687B
:204DA000DFF8FCB03C491A783C2A00F20E81DFE812F0E1000C010C010C010C010C010C017A
:204DC0000C010C010C010C010C010C010C010C010C010C0145000C010C010C010C010C01CB
:204DE0000C010C010C010C010C010C010C010C010C010C010C010C010C010C010C010C01E3
:204E00000C010C010C010C01F00043000C010C010C010C010C010C010C010C010C010C01A9
:204E20000C010C010C01C1004300AB00FFF7C8FD4FF6FF73984209D00F4E03E7FFF76CFED0
:204E4000E38D1120A071114E002BEFD1B6F82AB0BBF1000FF0D0DFF828A0104B0F4EB4F850
:204E60002890CAF8003006F5A07421E0582C0020102C00200C2C002004300020203000205C
:204E80000C30002014300020083000201C2C002010300020342C0020EB2B00202430002008
:204EA000EC2B00202036A642CAF8006000F0A680338A002BF6D09B45F4D1738A7A48102201
:204EC0000BB14B45EED133682BB973681BB9B3680BB9F36823B1314609F01CFA0028E1D12B
:204EE0002B887249DFF8DCE1714C724E0022303B02202B80C8F800103960CEF800202280E8
:204F0000307001F071FDAAE699F80020900770D550065AD442F040028BF800200191FFF752
:204F20007BFD0128019987D056D302283FF4DDAE336838E73A20FFF743FD4FF6FF739842F3
:204F40007FF47AAF9AF800305B4E2833E05C01F053FC9AF800302833E2185178E05C05F062
:204F6000A5FE012800F094802B88524E002B3FF469AEF3E699F800200191D10725D442F07A
:204F800001028BF80020FFF747FD01280199CBD152E799F800E00EF0040000F0FF02A0B9DC
:204FA0009AF800004EF0040E00F12803234493F803C08BF800E0BCF1000F6DD15A780830D7
:204FC00000EBC2020A703360EDE61A1B0420012105F090FE374EC1E69AF8002002F1280348
:204FE00023445878083202EBC00233608AF80020D9E642F002028BF800208FE70120042108
:20500000002205F077FE70E62C4806F0A9F800287FF4C5AE227E2A4BFF2A55D048F2FE00FA
:20502000198B814250D01989814253D081B95A8972B99A8962B9DA8952B91B8A43B9628AE0
:205040001F4B2AB99A8A1AB9DB8A002B3FF4F4AE228B1B4B82B95A8B72B99A8B62B9DA8BA4
:2050600052B91A8C42B95A8C32B99A8C22B9DB8CB3F5807F3FF4E0AE2B88B3F5A06F67D83A
:20508000E3790F4A012B5CD9013BD371094E65E600232B80337067E7114600F12A02042081
:2050A00005F028FE034E59E6242C00204C2C00202030002004300020EB2B0020342C0020C3
:2050C0001C2C00201430002048F2FE03218999427FF4B2AE2189224B79B9598969B9998902
:2050E00059B9D98949B9198A39B9598A29B9998A19B9DB8A002B3FF49FAE218B184B81B992
:20510000598B71B9998B61B9D98B51B9198C41B9598C31B9998C21B9DB8CB3F5807F3FF427
:205120008BAEFF2A3FF488AE0E4805F045FF024600287FF481AE0120022105F0DBFD0A4E9A
:205140000CE600210A46032005F0D4FD064E05E6022000214FF4A06205F0CCFDC5E500BF15
:205160001C2C0020342C002004300020030C80B2020A5BBA9BB242EA002043EA00407047D4
:2051800050B110B5044601F04BFF044B2146BDE81040186803F0D4BD704700BF6C0500200E
:2051A00008B504F073F8034B03491868BDE8084003F094BC6C05002081510000F8B50C4A23
:2051C00005461E461068079B9DF8182003F000FD044650B12F686968AA68EB680760416029
:2051E0008260C360467401F01BFF2046F8BD00BF6C050020024B0146186803F0CBBD00BF2C
:205200006C05002070B505460C4E306803F0B4FC8DB1044630B90EE02146306803F074FC37
:20522000044640B120462946102209F073F80028F2D1204670BD002070BD00BF6C050020AD
:20524000024B0146186803F061BD00BF6C05002008B5FFF7D7FF30B1034B01461868BDE8B5
:20526000084003F097BD08BD6C05002070B5054610200C4603F014FF0849064603F042FF80
:2052800000B170BD30462946224603F073FF304629462246BDE8704001F092BE18EB000098
:2052A0002DE9F04F9B4C85B0E3799B4DFF2B06D09A4F00233B802B7005B0BDE8F08F2B785B
:2052C00003F12C0020440279FF2AF1D0E21892F82920924F002AECD13988DFF84C92904EFC
:2052E00040334FF0140E9942C9F8002086F800E072DD23445A78A046002ADAD01A78012AC1
:2053000032D12289C9F8003062B9B8F80A204AB9B8F80C2032B9B8F80E201AB9B8F810209E
:20532000002A4BD053F8020F02AA5968DFF8FCA103C27C48FFF766FF0246CAF800000028D5
:2053400033D0FFF757FF83460028B2D0D9F8000059460230082208F0DDFFD0B9DAF8003060
:205360005A7C0AB902225A74297833782C31CA1822445278B7F800E003EBC202D2B25318B7
:2053800073453270634826DA43445A78002AB5D18FE7584602A9012203F014FD002888D099
:2053A000DAF8003002225A74DEE705230190009302A902235B48FFF701FFD5E7B8F81220E1
:2053C000002AAFD1B8F81420002AABD1B8F81620002AA7D16DE70844043005F00BFEDFF868
:2053E0005081C8F8000000283FF463AF2289494B7AB95A896AB99A895AB9DA894AB91A8AF7
:205400003AB95A8A2AB99A8A1AB9DB8A002B3FF450AF444E304605F0EDFD00287FF449AF9F
:2054200040F2FF23228BA6F1080C9A420BD1738A4BB9B38A3BB9F38A2BB9338B1BB9738BE5
:20544000B3F5807F54D0DFF8EC90484605F0D2FDD8F80030864698427FF42BAF96E80F005C
:2054600089E80F002B78234430330FCB86E80F0000264FF0280C3A20FF218822E02384F8AC
:20548000296084F8282084F82C3084F805C0A071E171668026715EF8020FDFF89CC0DEF856
:2054A0000410DEF80820DEF80C30DFF890E0ACE80F00DEF80000DEF8042002236021C4F8AC
:2054C0004200CCF8062084F8403084F841302E706670A4F84E6066852170A4F84A60A4F8AB
:2054E0004C60FFF7FDFAC043502360853B80E3E6337FFF2BA7D196E80F0006F1100E8EE8C8
:205500000F002B78D8F800E0634430330FCB86E80F00ADE71C2C0020EB2B00200C2C00203E
:20552000EE2B0020242C0020B4140020B0140020B8140020342C00204C2C0020142C002092
:20554000014805F0D1BB00BF8005002008B5064801F040F9054B00220120FD2118709970A6
:205560005A70DA7008BD00BFE95F00003816002070B413780D7A83F002039D42044614D022
:205580000B891BB94B89B3F57F4F2FD01E4A51F8085F13684E68012003F10801A0405E6055
:2055A0001D601160C0B270BC7047487A53789842E6D1887A93789842E2D1C87AD378984289
:2055C000DED1087B13799842DAD1487B53799842D6D1887B93799842D2D1D379CA7B9A427F
:2055E000CED1032303FA04F0C0B2DCE78B89FE2BCCD1054DC9892A68022322F8021B03FA57
:2056000004F02A60C0B2CEE7C414002010B5114C0220A17903F02AFDA379112B0FD0062B0D
:205620000DD03A2B05BF94F8281094F82930002143EA01210120BDE8104003F017BD238DBE
:20564000618D01209942A8BF1946BDE8104003F00DBD00BF1C2C002010B5084C2378012BE1
:2056600001D0002010BD01460822A01C08F052FE00280CBF2046002010BD00BF3816002084
:2056800008B50146102003F0FFFC044B04489B6800219847BDE80840FBF7F8BF84EB000045
:2056A000A556000010B50C4611462046FFF7DEFD044B1B6813B19B6820469847024B1C60A3
:2056C00010BD00BF9C1B0020481600202DE9F041154D07462A4600239078713230B10133A0
:2056E0000C2BF9D14FF0FF30BDE8F081C3EBC30403EB04142E19717003F012FCDFF83080FA
:205700000A4A98F800301168C01A2F55B070CC1803F006FC98F800202146821AF01C08F0EE
:205720002DFEB078BDE8F0814C16002044160020F02B00202DE9F04F074683B092BB604EF9
:20574000894636F8063C15469346FF244FF0FF38DFF878A1002B37D1B8F1FF3F4DD0012DE8
:2057600006F1B8062BD1B8F1FF3F23D0B82000FB08F5DFF850810F2008EB0506A6F81290B9
:20578000378203F08DFC0146304603F0B5FC05F1180040444021FEF777FD234658B203B0F1
:2057A000BDE8F08F474D00262C46238ABB422CD0B83436B3FF2358B203B0BDE8F08F36F8ED
:2057C000063C0125002BC7D03046FEF771FD68B13D4B26F806BCE9B29A7822B11A788A4267
:2057E00008BF83F802B071335345F5D1B8F1FF3FB5D136F8063C002BB1D1ECB24FFA84F8C6
:20580000ADE7238A0126BB42D2D1638A002BCFD00F20019203F044FC0146204603F072FCC6
:20582000019A0028C4D0F4B211462046FFF74EFF0028019A0CDB0028BCDDB82303FB0656CB
:205840002346B28A1044B08258B203B0BDE8F08F4FF0000BDA461A4FDFF870904FF0B80893
:2058600037F8063CEBB156451BD038460192FEF71FFD019AA8B100218E468C465FFA8AF0E5
:2058800008FB00535982104B997831B11978814204BF83F802C00EF1010E71334B45F3D12F
:2058A000F344B837BAF1000F07D0BBF1000F81D011462046FFF70AFFBDE74FF0010ACFE7C5
:2058C000E0140020C81400204C160020981B00202DE9F04715090F2D07469A4602F00F048A
:2058E0003FD00F2C34D0A146A84666195DBB0F2E03DD5CB9E5B9BDE8F08707EB0800C6F151
:205900001002002108F016FE002CF3D0DFF87480C9F11000D8F8006038443146224608F041
:205920002DFD022C26D03444C8F80040BDE8F08738465146BDE8F04705F0F6BC454620261C
:205940004FF010094C462A46384608F017FDCEE7A84605F11006002DF2D14FF010094C46DA
:20596000D4E70F2C4FF01008E8D042464546A146A618E9E70A2DD6D8FF22FE23FA723B7359
:20598000D1E700BFC41400202DE9F04F0F2089B0DFF8F482B24D03F083FB002703F048FCC0
:2059A00088F800702F7003F0A7FAAE4E3060042003F064FB3368DFF8D4E21C785A7804F040
:2059C000F80100B2C029CEF8000042EA042274D0E02963D1297893F8049093F802E0D8781D
:2059E000C2F30A044B1D4A46214640EA0E202B70FFF7A0FEB0F1FF3F83465BD09A4AB8236C
:205A000003FB0023B3F814A00123A245009734BF4FF0000A4FF0010A019303F081FA2B7839
:205A20008F4D834246D803F07BFA2B7898F80080C51A08EBC9098D4AA944B9F57A7F156008
:205A400038D837B1316807EB080019442A4608F095FC002C78D0009B53B183494FFA8BF3BF
:205A6000B82000FB031305EB080292B29A821A84BAF1000F40F00E81019BDBB97C4B45444C
:205A80001D807C4C236823B1FFF7C0FD23685B68984700F0C5FE09B0BDE8F08FBB4600973A
:205AA0003C46754F2A78995C01F0E000602854D041291DD009B0BDE8F08F297893F802E04A
:205AC000D878C2F30A040B1D3A46214640EA0E202B70FFF72FFEB0F1FF3F8346EAD0624F7B
:205AE000B82303FB00770122336822370092D9E73946501CC0B2034403F12000D3F800A0CA
:205B0000D3F80490D3F808C0D3F80CE010338342C1F800A0C1F80490C1F808C0C1F80CE008
:205B200001F11001EAD118685B6808604B6098F800302932283388F80030009B4FF0000A47
:205B40002A70D146019368E7019B002B96D0BAF1000FAFD0464B1C8093E7981890F80190DB
:205B60000232DFF82CA14FFA89FC1344BCF1000FCAF80030BCBF0133CAF80030CA064AD5EA
:205B800001F0080303F0FF0E002B40F0B081DAF800301A461B78C3F3830343F060033B700B
:205BA00012F8010BA7F802E0830803F0300343EA8013CAF800207B7001F0040303F0FF0224
:205BC000019233B9DAF8003013F8012BBA71CAF8003011F0030100F09780284B5B5CFB714E
:205BE00019F0400FC9F3011300F06281BCF1000FC0F299810022002B00F08E8020490878EE
:205C0000012800F0B6811F4A00239A4699461360009B019301E70B0700F16F81DAF800306A
:205C20001A4633F8010F9B78A7F80100FB70787812F804EB00F00F00019202464FEA9E030E
:205C400003F0300040EA8E10104303F00F03019A43F06003CAF800203B707870ACE700BF09
:205C6000F02B002044160020C8140020981B00200C2C00209C1B00201C2C0020A4EA00007B
:205C800038160020BC140020EF2B0020C0140020C41400204FFA8BF7B82101FB07F1DFF811
:205CA00034A3C2480AEB010319461A8C9C822231BF4E08F063FBBD4B06F24C5916F8012C51
:205CC00022B116F8031C8F4200F03B8171364E45F4D100221046B823FFB203FB07AAB54B95
:205CE0005FFA8BFCAAF8122003F24C519A781AB11A78624508BF987071338B42F6D1019BA5
:205D0000002B3FF4BBAE25E7DAF8003013F8012BFA71CAF8003063E707F1080204920593A0
:205D2000A54A0F20D25CCDF80CC0029203F0B8F905990346029A0498FFF7CAFDDDF80CC0D1
:205D400009F0080303F0FF0209F0030E002B36D019F0040F11D1994A0EF1FF331288012B38
:205D6000ADF81C2040F21881954B07F1180013F80E2007A90023FFF7ABFD98F8002002F13A
:205D8000280388F80030019B002B3BD1DAF800303268DFF844929B1A2B70002C00F09A8086
:205DA000A4F128031A127B713A71BB79112B00F0C080009B4FF0000AD14601932DE619F015
:205DC000040F00F0C880BCF1000FC0F2DE807D490B78012B7FF417AF4B7893427FF413AF31
:205DE000794A754B102013F80E901160029103F057F9029903464A46023107F11800FFF753
:205E000067FDBAE7DAF80030197801F0F801F029BED11121B971187800F0F301F03900F06F
:205E20000400C0B20329C4D8DFE801F0382F2002597802330909A1F5756189B2090241F0E8
:205E4000F001398513F8011C01F00F01A1F5756189B2090241F0F0017985CAF8003000287E
:205E600000F0BC80303288F8002091E759780433A1F5805189B2090241F0F001398533F8BC
:205E8000021CCAF800307985E9E7B3F801100433398513F8011CA1F58051D9E7B3F8011068
:205EA0000533398533F8021CCAF800307985D6E7464A0F20D25CCDF80CC0029203F0F0F809
:205EC000029A0346424907F10800FFF701FDDDF80CC035E703F024F899F8002098F8003021
:205EE000801A0344283B1A127B713A715DE7002360223A707B707B805EE6DAF80020602369
:205F000010463B7010F8013B03324FEA930E0EF0300E03F00F034EEA03037B700388CAF876
:205F200000207B8048E62A7831680A449278120961E6BB884FF0000ABB85009BD146019311
:205F40006BE516F8020C314603EBC000009308F015FA009BBAE61D4B102013F80E9003F0A7
:205F60009FF84A4603461A4907F11800FFF7B0FC03E7487890427FF446AE134A881C116047
:205F800007F1080205900492CAE632682B7813449A7802F00F021AE7DAF8003013F8012B41
:205FA0008DF81D20CAF80030DEE600BF1C2C00204F1600204C160020C0EA0000A0EA000007
:205FC000BCEA000038160020BC140020A8EA0000ACEA0000C8140020F02B002033F8021B16
:205FE000F985CAF800303DE72DE9F04FB14EDFF8F4A2002387B033708AF80030054602F060
:20600000C1FF02F079FFAC4BAC4C1B6820600BB1FFF7FCFA04A80190002D00F0A6822946CB
:2060200003F06AF8A64B1B883E2B36D99AF80070D4F8008000230237A24D08F80730A24845
:2060400008F102032B60FFF707FB002800F00F8108F103032B604FF08009DFF874B29BF835
:2060600001209BF80010130943EA0113DBB2980840EA8313DBB210075FFA83FE5FD1BBF8B1
:20608000020000285BD1080740F0F98012F0F00F40F0F5807823029361E0DFF834B29AF88C
:2060A00000C0DE4623680CF10105EDB241221D441A700BF1200877460FCF474528606960E5
:2060C000AA60EB600EF1100E05F11005F3D1BEE803002860696033780CF1290C28338AF8CB
:2060E00000C033700199102002F0CEFF774B744D1B689847724B0028B3F8009036789AF86F
:206100000080ACBFC0F17D076827C6EB0902C8EB0703B8BF15209A4240F3B880C0F1780338
:206120001E46029302F0B4FB99FBF6F909F101098145C0F2D980002007B0BDE8F08F090762
:2061400003D112F0F00F00F084802A68DBF800001346106003F804EB2B60602302939BF828
:206160000630112B00F005822A6802F8013B9BF807302A60402B00F00582FF2B00F022827A
:20618000012B61D02A6802F8013B2A60BBF808304F4A3BB953892BB993891BB9D389002BA1
:2061A00000F044824B48FFF757FA4B4B1860002800F07781427818F80730042043EA0213CA
:2061C00008F807304349454AFFF7D2F960F03F005FFA80F99BF818303D49FF2B00F08F81C0
:2061E00001F118000391FFF737FA3B4A03991060002800F0CC8118F8072043781831134353
:2062000008F807300020019AFFF7B2F949F004095FFA89F949EA00002F685FFA80FE9BF896
:2062200006302822112B3270294900F0108123689AF800209DF80800FF1A991898548AF8FB
:20624000007081F801E04DE7029B43F0010302939CE7296823F03F031343214A0B70128898
:20626000CB1C2B606823A1F80120029377E71948FFF7F2F900287FF4EBAE8146EDE62B68D1
:20628000702203F801EB02922B6068E720680BEB0601404408F072F828884044801B80B2AB
:2062A00002F024FE0198FFF7EBF9012007B0BDE8F08F00BFEF2B00209C1B00204416002011
:2062C0000C2C0020C4140020342C002020EB00001C2C0020242C0020BC140020142C0020BB
:2062E0001E2C0020F02B0020C24BD4F8008093F80090C14E41464A46002308F104003360AC
:2063000008F0B2F82B88DFF818E36FEA83436FEA9343BA4AC3F3072309F104095FFA89F942
:2063200088F80030BEF8003028881178C9EB070703F1010C27F007071A0A88F80330B04ED1
:20634000AC4B88F8010088F8022059443A4608EB090083F80090AEF800C0376008F00EF804
:2063600007EB090080B202F0C1FD02F097FAA54F804600283FF4DFAE0198FFF781F940468C
:2063800002F0DAFA404602F0C1FA9B4B1B68012B3FF4D1AE043B012B7FF6CDAE2B883A680D
:2063A0006FEAC3436FEAD3439449C3F3072391F8008013703368029943442D881FFA83F8C0
:2063C0008C4B21F007000521557030601970374632E0D6F8009020684A450346B8BF91462F
:2063E0009AF80050B8BF3A6083F804E04A46284407F0C4FF09EB050080B202F077FD02F012
:206400004DFA054600283FF496AE0198FFF738F9284602F091FA284602F078FA764A336873
:2064200012689844012AA2F104031FFA88F83FF482AE012B7FF67FAE734B0BEB08011B8817
:206440004FEAD80E9845C8EB0302C2D32DE74FF2B0020B8D5BBA9BB223F00F0080B29042CC
:206460004A8D52BA92B200F0B28002F47F42B2F5704F00F0308103F47F43B3F5704F00F005
:20648000FA80624BF0223A7018687B1DC7F801001F465F4B30221B88327027F8023B2F60B0
:2064A000C5E648F2FE03BBF808205A499A420FD14B8B6BB98B8B5BB9CB8B4BB908310420E1
:2064C000554AFFF755F840EA09005FFA80F981E6D5F800C0DFF84CE10CF110032B60BEE89C
:2064E0000F00CCF80410CCF80000CCF80820CCF80C309BF818304749FF2B7FF471AE91F855
:2065000019C049F0080EBCF1020F5FFA8EFE4B8B00F0BC80002B43D18B8B002B40D1BBF86A
:206520001E303C48002B3BD1038C33B9438C23B990F82430002B00F0DA80BBF82020354B68
:2065400072BB93F822205ABB2F6849F0090E3A4602F801CB53F8231F063747F8051C1B7941
:206560005FFA8EFE13712F6059E62C4902F0C4FD58E5029B43F0040302939BF80730402BDE
:206580007FF4FBAD029B43F002030293FEE548F2FE030A8B9A4202D14B8B002B5BD0CE46D4
:2065A000D5F80080DFF880C008F11007BCE80F002F60C8F80000C8F80410C8F80820C8F8E9
:2065C0000C302CE6029B43F003030293DEE522F00F0C84457FF449AFF3233B704B8D0A8DAE
:2065E0001B0A120A03EB021303F5AA637B70BB1C4EE700BFF02B002048160020EF2B0020A9
:20660000981B0020441600200C2C0020442C00204A2C00201C2C0020142C002018EB0000E4
:20662000D42B0020242C0020342C0020138A002B7FF4B8AD538A002B7FF4B4AD938A002B87
:206640007FF4B0ADD38A002B7FF4ACAD49F040095FFA89F9BEE58B8B002BA0D1CB8B002BE3
:206660009DD11831019AFEF783FF40EA09005FFA80FE2F68D3E5F2233B70BBF82830244ABF
:206680001B0A7B7012883B1D7A8001E7002B87D18B8B002B84D1CB8B002B7FF440AF0B8C83
:2066A000002B7FF43CAF4B8C002B7FF438AF8B8C002B7FF434AF91F82630002B7FF42FAF02
:2066C0002F6891F8273049F00B0E07F8013B5FFA8EFE2F60A3E5F1220E4B3A701A883B1DAA
:2066E000A7F80120BBF82A20120AFA70D0E62A6849F00A0E134603F801CB30F8251F171DFE
:2067000080785FFA8EFEA2F801102F60987086E5462C0020442C0020014B1868704700BF8B
:20672000C0140020002849D0F0B5078883B0064657B300273D4606E0002F1ADB1FD001378C
:206740000235102D13D073195B78745D03EB0424A4B2002CF0D0002FC8BF4FF0FF3708DD4A
:20676000214618480235FCF7BDFC102DEBD103B0F0BD002DF4D03A20FBF714F8F0E712489C
:20678000FCF7B0FC0127DBE74288AAB98388002BCFD1C7887FB9038973B94FF6FF724189AE
:2067A000914208D1017B427B837BC07B00900748FCF798FCDBE71F463D46C4E70448FCF7C1
:2067C00091BC00BFE4E60000DCE60000E0EA0000D0EA0000014B1860704700BFB01B002078
:2067E00010B51446FEF7C8F918B1024BC4611B68836110BDD40B002000B5074B83B08DF897
:206800000700186828B1054B0DF107021978FDF7D7FC03B05DF804FB183000204B3400205B
:2068200008B5022100220448FDF7CAFC0349044A00230B80137008BD8C0500200C2C0020B7
:20684000EB2B002038B5294C238863B3B3F5A06F24D8274D2B8B6BB96B8B5BB9AB8B4BB99A
:20686000EB8B3BB92B8C2BB96B8C1BB9AB8C0BB9EB8C9BB100F0DEFA80B12B7EFF2B13D0DB
:206880001C4804F099FBA8B11A48FEF7BBFC58B3FEF7B0FC184B1B6803B19847174A0023FC
:2068A0001370238038BD38BD134B1B68002BF5D00020F2E70F48FDF771FE054678B1FDF7DC
:2068C00045FE0028E1D1EB6923B11B6A93F8540000F03AFD2846BDE83840FDF79BBEFEF71B
:2068E0000FF80028D1D1D9E7208038BD0C2C00201C2C0020342C0020B01B0020EB2B002011
:2069000030B5038883B00446F3B140F24B30834215D1022947D02DD9872937D0882923D1EA
